{
  "_format": "hh-sol-artifact-1",
  "contractName": "YieldForgeVault",
  "sourceName": "contracts/YieldForge/YieldForgeVault.sol",
  "abi": [
    {
      "inputs": [
        {
          "internalType": "address",
          "name": "_depositToken",
          "type": "address"
        },
        {
          "internalType": "address",
          "name": "_feeRecipient",
          "type": "address"
        }
      ],
      "stateMutability": "nonpayable",
      "type": "constructor"
    },
    {
      "inputs": [],
      "name": "EnforcedPause",
      "type": "error"
    },
    {
      "inputs": [],
      "name": "ExpectedPause",
      "type": "error"
    },
    {
      "inputs": [
        {
          "internalType": "address",
          "name": "owner",
          "type": "address"
        }
      ],
      "name": "OwnableInvalidOwner",
      "type": "error"
    },
    {
      "inputs": [
        {
          "internalType": "address",
          "name": "account",
          "type": "address"
        }
      ],
      "name": "OwnableUnauthorizedAccount",
      "type": "error"
    },
    {
      "inputs": [],
      "name": "ReentrancyGuardReentrantCall",
      "type": "error"
    },
    {
      "inputs": [
        {
          "internalType": "address",
          "name": "token",
          "type": "address"
        }
      ],
      "name": "SafeERC20FailedOperation",
      "type": "error"
    },
    {
      "anonymous": false,
      "inputs": [
        {
          "indexed": true,
          "internalType": "address",
          "name": "user",
          "type": "address"
        },
        {
          "indexed": false,
          "internalType": "uint256",
          "name": "amount",
          "type": "uint256"
        },
        {
          "indexed": false,
          "internalType": "uint256",
          "name": "shares",
          "type": "uint256"
        }
      ],
      "name": "Deposit",
      "type": "event"
    },
    {
      "anonymous": false,
      "inputs": [
        {
          "indexed": true,
          "internalType": "address",
          "name": "user",
          "type": "address"
        },
        {
          "indexed": false,
          "internalType": "uint256",
          "name": "yield",
          "type": "uint256"
        }
      ],
      "name": "Harvest",
      "type": "event"
    },
    {
      "anonymous": false,
      "inputs": [
        {
          "indexed": true,
          "internalType": "address",
          "name": "previousOwner",
          "type": "address"
        },
        {
          "indexed": true,
          "internalType": "address",
          "name": "newOwner",
          "type": "address"
        }
      ],
      "name": "OwnershipTransferred",
      "type": "event"
    },
    {
      "anonymous": false,
      "inputs": [
        {
          "indexed": false,
          "internalType": "address",
          "name": "account",
          "type": "address"
        }
      ],
      "name": "Paused",
      "type": "event"
    },
    {
      "anonymous": false,
      "inputs": [
        {
          "indexed": false,
          "internalType": "uint256",
          "name": "newFee",
          "type": "uint256"
        }
      ],
      "name": "PerformanceFeeUpdated",
      "type": "event"
    },
    {
      "anonymous": false,
      "inputs": [
        {
          "indexed": true,
          "internalType": "uint256",
          "name": "strategyId",
          "type": "uint256"
        },
        {
          "indexed": false,
          "internalType": "address",
          "name": "strategyAddress",
          "type": "address"
        },
        {
          "indexed": false,
          "internalType": "uint256",
          "name": "allocation",
          "type": "uint256"
        }
      ],
      "name": "StrategyAdded",
      "type": "event"
    },
    {
      "anonymous": false,
      "inputs": [
        {
          "indexed": true,
          "internalType": "uint256",
          "name": "strategyId",
          "type": "uint256"
        },
        {
          "indexed": false,
          "internalType": "uint256",
          "name": "newAllocation",
          "type": "uint256"
        }
      ],
      "name": "StrategyUpdated",
      "type": "event"
    },
    {
      "anonymous": false,
      "inputs": [
        {
          "indexed": false,
          "internalType": "address",
          "name": "account",
          "type": "address"
        }
      ],
      "name": "Unpaused",
      "type": "event"
    },
    {
      "anonymous": false,
      "inputs": [
        {
          "indexed": true,
          "internalType": "address",
          "name": "user",
          "type": "address"
        },
        {
          "indexed": false,
          "internalType": "uint256",
          "name": "amount",
          "type": "uint256"
        },
        {
          "indexed": false,
          "internalType": "uint256",
          "name": "shares",
          "type": "uint256"
        }
      ],
      "name": "Withdraw",
      "type": "event"
    },
    {
      "inputs": [
        {
          "internalType": "address",
          "name": "strategyAddress",
          "type": "address"
        },
        {
          "internalType": "uint256",
          "name": "allocation",
          "type": "uint256"
        }
      ],
      "name": "addStrategy",
      "outputs": [],
      "stateMutability": "nonpayable",
      "type": "function"
    },
    {
      "inputs": [
        {
          "internalType": "uint256",
          "name": "amount",
          "type": "uint256"
        }
      ],
      "name": "deposit",
      "outputs": [],
      "stateMutability": "nonpayable",
      "type": "function"
    },
    {
      "inputs": [],
      "name": "depositToken",
      "outputs": [
        {
          "internalType": "contract IERC20",
          "name": "",
          "type": "address"
        }
      ],
      "stateMutability": "view",
      "type": "function"
    },
    {
      "inputs": [],
      "name": "feeRecipient",
      "outputs": [
        {
          "internalType": "address",
          "name": "",
          "type": "address"
        }
      ],
      "stateMutability": "view",
      "type": "function"
    },
    {
      "inputs": [
        {
          "internalType": "address",
          "name": "user",
          "type": "address"
        }
      ],
      "name": "getUserBalance",
      "outputs": [
        {
          "internalType": "uint256",
          "name": "",
          "type": "uint256"
        }
      ],
      "stateMutability": "view",
      "type": "function"
    },
    {
      "inputs": [],
      "name": "getVaultStats",
      "outputs": [
        {
          "internalType": "uint256",
          "name": "_totalAssets",
          "type": "uint256"
        },
        {
          "internalType": "uint256",
          "name": "_totalShares",
          "type": "uint256"
        },
        {
          "internalType": "uint256",
          "name": "_strategyCount",
          "type": "uint256"
        },
        {
          "internalType": "uint256",
          "name": "_performanceFee",
          "type": "uint256"
        }
      ],
      "stateMutability": "view",
      "type": "function"
    },
    {
      "inputs": [
        {
          "internalType": "address",
          "name": "user",
          "type": "address"
        }
      ],
      "name": "harvest",
      "outputs": [
        {
          "internalType": "uint256",
          "name": "",
          "type": "uint256"
        }
      ],
      "stateMutability": "nonpayable",
      "type": "function"
    },
    {
      "inputs": [],
      "name": "owner",
      "outputs": [
        {
          "internalType": "address",
          "name": "",
          "type": "address"
        }
      ],
      "stateMutability": "view",
      "type": "function"
    },
    {
      "inputs": [],
      "name": "pause",
      "outputs": [],
      "stateMutability": "nonpayable",
      "type": "function"
    },
    {
      "inputs": [],
      "name": "paused",
      "outputs": [
        {
          "internalType": "bool",
          "name": "",
          "type": "bool"
        }
      ],
      "stateMutability": "view",
      "type": "function"
    },
    {
      "inputs": [],
      "name": "performanceFee",
      "outputs": [
        {
          "internalType": "uint256",
          "name": "",
          "type": "uint256"
        }
      ],
      "stateMutability": "view",
      "type": "function"
    },
    {
      "inputs": [],
      "name": "renounceOwnership",
      "outputs": [],
      "stateMutability": "nonpayable",
      "type": "function"
    },
    {
      "inputs": [
        {
          "internalType": "uint256",
          "name": "newFee",
          "type": "uint256"
        }
      ],
      "name": "setPerformanceFee",
      "outputs": [],
      "stateMutability": "nonpayable",
      "type": "function"
    },
    {
      "inputs": [
        {
          "internalType": "uint256",
          "name": "",
          "type": "uint256"
        }
      ],
      "name": "strategies",
      "outputs": [
        {
          "internalType": "address",
          "name": "strategyAddress",
          "type": "address"
        },
        {
          "internalType": "uint256",
          "name": "allocation",
          "type": "uint256"
        },
        {
          "internalType": "bool",
          "name": "active",
          "type": "bool"
        },
        {
          "internalType": "uint256",
          "name": "totalDeposited",
          "type": "uint256"
        }
      ],
      "stateMutability": "view",
      "type": "function"
    },
    {
      "inputs": [],
      "name": "strategyCount",
      "outputs": [
        {
          "internalType": "uint256",
          "name": "",
          "type": "uint256"
        }
      ],
      "stateMutability": "view",
      "type": "function"
    },
    {
      "inputs": [],
      "name": "totalAssets",
      "outputs": [
        {
          "internalType": "uint256",
          "name": "",
          "type": "uint256"
        }
      ],
      "stateMutability": "view",
      "type": "function"
    },
    {
      "inputs": [],
      "name": "totalShares",
      "outputs": [
        {
          "internalType": "uint256",
          "name": "",
          "type": "uint256"
        }
      ],
      "stateMutability": "view",
      "type": "function"
    },
    {
      "inputs": [
        {
          "internalType": "address",
          "name": "newOwner",
          "type": "address"
        }
      ],
      "name": "transferOwnership",
      "outputs": [],
      "stateMutability": "nonpayable",
      "type": "function"
    },
    {
      "inputs": [],
      "name": "unpause",
      "outputs": [],
      "stateMutability": "nonpayable",
      "type": "function"
    },
    {
      "inputs": [
        {
          "internalType": "uint256",
          "name": "strategyId",
          "type": "uint256"
        },
        {
          "internalType": "uint256",
          "name": "newAllocation",
          "type": "uint256"
        }
      ],
      "name": "updateStrategyAllocation",
      "outputs": [],
      "stateMutability": "nonpayable",
      "type": "function"
    },
    {
      "inputs": [
        {
          "internalType": "address",
          "name": "",
          "type": "address"
        }
      ],
      "name": "userDeposits",
      "outputs": [
        {
          "internalType": "uint256",
          "name": "amount",
          "type": "uint256"
        },
        {
          "internalType": "uint256",
          "name": "shares",
          "type": "uint256"
        },
        {
          "internalType": "uint256",
          "name": "depositTime",
          "type": "uint256"
        },
        {
          "internalType": "uint256",
          "name": "lastHarvestTime",
          "type": "uint256"
        }
      ],
      "stateMutability": "view",
      "type": "function"
    },
    {
      "inputs": [
        {
          "internalType": "uint256",
          "name": "shares",
          "type": "uint256"
        }
      ],
      "name": "withdraw",
      "outputs": [],
      "stateMutability": "nonpayable",
      "type": "function"
    }
  ],
  "bytecode": "0x60a060405260326008553480156200001657600080fd5b50604051620011d8380380620011d88339810160408190526200003991620001a7565b33806200006157604051631e4fbdf760e01b8152600060048201526024015b60405180910390fd5b6200006c816200013a565b50600180556001600160a01b038216620000b95760405162461bcd60e51b815260206004820152600d60248201526c24b73b30b634b2103a37b5b2b760991b604482015260640162000058565b6001600160a01b038116620001115760405162461bcd60e51b815260206004820152601560248201527f496e76616c69642066656520726563697069656e740000000000000000000000604482015260640162000058565b6001600160a01b03918216608052600980546001600160a01b03191691909216179055620001df565b600080546001600160a01b038381166001600160a01b0319831681178455604051919092169283917f8be0079c531659141344cd1fd0a4f28419497f9722a3daafe3b4186f6b6457e09190a35050565b80516001600160a01b0381168114620001a257600080fd5b919050565b60008060408385031215620001bb57600080fd5b620001c6836200018a565b9150620001d6602084016200018a565b90509250929050565b608051610fc862000210600039600081816102b6015281816104ad0152818161063501526108ee0152610fc86000f3fe608060405234801561001057600080fd5b50600436106101425760003560e01c8063715018a6116100b8578063b6b55f251161007c578063b6b55f251461029e578063c89039c5146102b1578063c9411e22146102d8578063d574ea3d146102eb578063f2fde38b14610360578063fe1148e11461037357600080fd5b8063715018a6146102635780638456cb591461026b57806387788782146102735780638da5cb5b1461027c578063a59aa5a61461028d57600080fd5b80633a98ef391161010a5780633a98ef39146101eb5780633f4ba83a146101f457806346904840146101fc57806347734892146102275780635c975abb1461023a57806370897b231461025057600080fd5b806301e1d114146101475780630ba36dcd146101635780630e5c011e146101ba57806322068b44146101cd5780632e1a7d4d146101d6575b600080fd5b61015060075481565b6040519081526020015b60405180910390f35b61019a610171366004610e7e565b600360208190526000918252604090912080546001820154600283015492909301549092919084565b60408051948552602085019390935291830152606082015260800161015a565b6101506101c8366004610e7e565b610386565b61015060055481565b6101e96101e4366004610e99565b61053b565b005b61015060065481565b6101e96106a6565b60095461020f906001600160a01b031681565b6040516001600160a01b03909116815260200161015a565b610150610235366004610e7e565b6106b8565b60025460ff16604051901515815260200161015a565b6101e961025e366004610e99565b610734565b6101e96107b8565b6101e96107ca565b61015060085481565b6000546001600160a01b031661020f565b60075460065460055460085461019a565b6101e96102ac366004610e99565b6107da565b61020f7f000000000000000000000000000000000000000000000000000000000000000081565b6101e96102e6366004610eb2565b61094e565b6103306102f9366004610e99565b60046020526000908152604090208054600182015460028301546003909301546001600160a01b0390921692909160ff9091169084565b604080516001600160a01b039095168552602085019390935290151591830191909152606082015260800161015a565b6101e961036e366004610e7e565b610ab5565b6101e9610381366004610edc565b610af0565b6000610390610bd6565b6001600160a01b038216600090815260036020526040902080546103e85760405162461bcd60e51b815260206004820152600a602482015269139bc819195c1bdcda5d60b21b60448201526064015b60405180910390fd5b60008160030154426103fa9190610f14565b9050600063bbf81e008284600001546104139190610f2d565b61041e90600c610f2d565b6104289190610f44565b90508015610525576000612710600854836104439190610f2d565b61044d9190610f44565b9050600061045b8284610f14565b9050808560000160008282546104719190610f66565b909155505042600386015560078054829190600090610491908490610f66565b909155505081156104d6576009546104d6906001600160a01b037f00000000000000000000000000000000000000000000000000000000000000008116911684610c00565b866001600160a01b03167fc9695243a805adb74c91f28311176c65b417e842d5699893cef56d18bfa48cba8260405161051191815260200190565b60405180910390a2945061052d9350505050565b600093505050505b61053660018055565b919050565b610543610bd6565b3360009081526003602052604090208115801590610565575080600101548211155b6105a25760405162461bcd60e51b815260206004820152600e60248201526d496e76616c69642073686172657360901b60448201526064016103df565b6000600654600754846105b59190610f2d565b6105bf9190610f44565b9050808260000160008282546105d59190610f14565b92505081905550828260010160008282546105f09190610f14565b9250508190555082600660008282546106099190610f14565b9250508190555080600760008282546106229190610f14565b9091555061065c90506001600160a01b037f0000000000000000000000000000000000000000000000000000000000000000163383610c00565b604080518281526020810185905233917ff279e6a1f5e320cca91135676d9cb6e44ca8a08c0b88342bcdb1144f6511b56891015b60405180910390a250506106a360018055565b50565b6106ae610c64565b6106b6610c91565b565b6001600160a01b03811660009081526003602081815260408084208151608081018352815481526001820154938101849052600282015492810192909252909201546060830152820361070e5750600092915050565b60065460075482602001516107239190610f2d565b61072d9190610f44565b9392505050565b61073c610c64565b6103e881111561077d5760405162461bcd60e51b815260206004820152600c60248201526b08ccaca40e8dede40d0d2ced60a31b60448201526064016103df565b60088190556040518181527f9b49d0cd76012d9c67241c2f68f836efbaf50ea29901a250040671402d5263f59060200160405180910390a150565b6107c0610c64565b6106b66000610ce3565b6107d2610c64565b6106b6610d33565b6107e2610bd6565b6107ea610d70565b6000811161082f5760405162461bcd60e51b81526020600482015260126024820152710416d6f756e74206d757374206265203e20360741b60448201526064016103df565b600060065460001461085a5760075460065461084b9084610f2d565b6108559190610f44565b61085c565b815b33600090815260036020526040812080549293509184918391610880908490610f66565b925050819055508181600101600082825461089b9190610f66565b909155505042600282018190556003820155600680548391906000906108c2908490610f66565b9250508190555082600760008282546108db9190610f66565b9091555061091690506001600160a01b037f000000000000000000000000000000000000000000000000000000000000000016333086610d94565b604080518481526020810184905233917f90890809c654f11d6e72a28fa60149770a0d11ec6c92319d6ceb2bb0a4ea1a159101610690565b610956610c64565b6001600160a01b03821661099f5760405162461bcd60e51b815260206004820152601060248201526f496e76616c696420737472617465677960801b60448201526064016103df565b6127108111156109e55760405162461bcd60e51b8152602060048201526011602482015270416c6c6f636174696f6e203e203130302560781b60448201526064016103df565b604080516080810182526001600160a01b038481168083526020808401868152600185870181815260006060880181815260058054835260048752918a9020985189546001600160a01b03191698169790971788559251918701919091555160028601805460ff191691151591909117905592516003909401939093559054835191825291810184905290917fe29e5861eca7c6e4c466b83b182ac36bf926b16e500c62747a7fcd867af8c738910160405180910390a260058054906000610aac83610f79565b91905055505050565b610abd610c64565b6001600160a01b038116610ae757604051631e4fbdf760e01b8152600060048201526024016103df565b6106a381610ce3565b610af8610c64565b6005548210610b3c5760405162461bcd60e51b815260206004820152601060248201526f496e76616c696420737472617465677960801b60448201526064016103df565b612710811115610b825760405162461bcd60e51b8152602060048201526011602482015270416c6c6f636174696f6e203e203130302560781b60448201526064016103df565b600082815260046020526040908190206001018290555182907f4013b0db7cf4aa4abdbe70714f5bcf2f1c3080326667c626ee8cc14a3288282f90610bca9084815260200190565b60405180910390a25050565b600260015403610bf957604051633ee5aeb560e01b815260040160405180910390fd5b6002600155565b6040516001600160a01b03838116602483015260448201839052610c5f91859182169063a9059cbb906064015b604051602081830303815290604052915060e01b6020820180516001600160e01b038381831617835250505050610dd3565b505050565b6000546001600160a01b031633146106b65760405163118cdaa760e01b81523360048201526024016103df565b610c99610e44565b6002805460ff191690557f5db9ee0a495bf2e6ff9c91a7834c1ba4fdd244a5e8aa4e537bd38aeae4b073aa335b6040516001600160a01b03909116815260200160405180910390a1565b600080546001600160a01b038381166001600160a01b0319831681178455604051919092169283917f8be0079c531659141344cd1fd0a4f28419497f9722a3daafe3b4186f6b6457e09190a35050565b610d3b610d70565b6002805460ff191660011790557f62e78cea01bee320cd4e420270b5ea74000d11b0c9f74754ebdbfc544b05a258610cc63390565b60025460ff16156106b65760405163d93c066560e01b815260040160405180910390fd5b6040516001600160a01b038481166024830152838116604483015260648201839052610dcd9186918216906323b872dd90608401610c2d565b50505050565b600080602060008451602086016000885af180610df6576040513d6000823e3d81fd5b50506000513d91508115610e0e578060011415610e1b565b6001600160a01b0384163b155b15610dcd57604051635274afe760e01b81526001600160a01b03851660048201526024016103df565b60025460ff166106b657604051638dfc202b60e01b815260040160405180910390fd5b80356001600160a01b038116811461053657600080fd5b600060208284031215610e9057600080fd5b61072d82610e67565b600060208284031215610eab57600080fd5b5035919050565b60008060408385031215610ec557600080fd5b610ece83610e67565b946020939093013593505050565b60008060408385031215610eef57600080fd5b50508035926020909101359150565b634e487b7160e01b600052601160045260246000fd5b81810381811115610f2757610f27610efe565b92915050565b8082028115828204841417610f2757610f27610efe565b600082610f6157634e487b7160e01b600052601260045260246000fd5b500490565b80820180821115610f2757610f27610efe565b600060018201610f8b57610f8b610efe565b506001019056fea26469706673582212200fd7fc8f5a4765e6cb3c904fe6a5254d96b427f3a08b2ac0a43f302a1bbcf45064736f6c63430008140033",
  "linkReferences": {},
  "deployedLinkReferences": {}
}