{
  "_format": "hh-sol-artifact-1",
  "contractName": "YieldForgeToken",
  "sourceName": "contracts/YieldForge/YieldForgeToken.sol",
  "abi": [
    {
      "inputs": [],
      "stateMutability": "nonpayable",
      "type": "constructor"
    },
    {
      "inputs": [
        {
          "internalType": "address",
          "name": "spender",
          "type": "address"
        },
        {
          "internalType": "uint256",
          "name": "allowance",
          "type": "uint256"
        },
        {
          "internalType": "uint256",
          "name": "needed",
          "type": "uint256"
        }
      ],
      "name": "ERC20InsufficientAllowance",
      "type": "error"
    },
    {
      "inputs": [
        {
          "internalType": "address",
          "name": "sender",
          "type": "address"
        },
        {
          "internalType": "uint256",
          "name": "balance",
          "type": "uint256"
        },
        {
          "internalType": "uint256",
          "name": "needed",
          "type": "uint256"
        }
      ],
      "name": "ERC20InsufficientBalance",
      "type": "error"
    },
    {
      "inputs": [
        {
          "internalType": "address",
          "name": "approver",
          "type": "address"
        }
      ],
      "name": "ERC20InvalidApprover",
      "type": "error"
    },
    {
      "inputs": [
        {
          "internalType": "address",
          "name": "receiver",
          "type": "address"
        }
      ],
      "name": "ERC20InvalidReceiver",
      "type": "error"
    },
    {
      "inputs": [
        {
          "internalType": "address",
          "name": "sender",
          "type": "address"
        }
      ],
      "name": "ERC20InvalidSender",
      "type": "error"
    },
    {
      "inputs": [
        {
          "internalType": "address",
          "name": "spender",
          "type": "address"
        }
      ],
      "name": "ERC20InvalidSpender",
      "type": "error"
    },
    {
      "inputs": [
        {
          "internalType": "address",
          "name": "owner",
          "type": "address"
        }
      ],
      "name": "OwnableInvalidOwner",
      "type": "error"
    },
    {
      "inputs": [
        {
          "internalType": "address",
          "name": "account",
          "type": "address"
        }
      ],
      "name": "OwnableUnauthorizedAccount",
      "type": "error"
    },
    {
      "anonymous": false,
      "inputs": [
        {
          "indexed": true,
          "internalType": "address",
          "name": "owner",
          "type": "address"
        },
        {
          "indexed": true,
          "internalType": "address",
          "name": "spender",
          "type": "address"
        },
        {
          "indexed": false,
          "internalType": "uint256",
          "name": "value",
          "type": "uint256"
        }
      ],
      "name": "Approval",
      "type": "event"
    },
    {
      "anonymous": false,
      "inputs": [
        {
          "indexed": true,
          "internalType": "address",
          "name": "previousOwner",
          "type": "address"
        },
        {
          "indexed": true,
          "internalType": "address",
          "name": "newOwner",
          "type": "address"
        }
      ],
      "name": "OwnershipTransferred",
      "type": "event"
    },
    {
      "anonymous": false,
      "inputs": [
        {
          "indexed": true,
          "internalType": "address",
          "name": "user",
          "type": "address"
        },
        {
          "indexed": false,
          "internalType": "uint256",
          "name": "amount",
          "type": "uint256"
        }
      ],
      "name": "RewardsClaimed",
      "type": "event"
    },
    {
      "anonymous": false,
      "inputs": [
        {
          "indexed": true,
          "internalType": "address",
          "name": "user",
          "type": "address"
        },
        {
          "indexed": false,
          "internalType": "uint256",
          "name": "amount",
          "type": "uint256"
        }
      ],
      "name": "TokensStaked",
      "type": "event"
    },
    {
      "anonymous": false,
      "inputs": [
        {
          "indexed": true,
          "internalType": "address",
          "name": "user",
          "type": "address"
        },
        {
          "indexed": false,
          "internalType": "uint256",
          "name": "amount",
          "type": "uint256"
        }
      ],
      "name": "TokensUnstaked",
      "type": "event"
    },
    {
      "anonymous": false,
      "inputs": [
        {
          "indexed": true,
          "internalType": "address",
          "name": "from",
          "type": "address"
        },
        {
          "indexed": true,
          "internalType": "address",
          "name": "to",
          "type": "address"
        },
        {
          "indexed": false,
          "internalType": "uint256",
          "name": "value",
          "type": "uint256"
        }
      ],
      "name": "Transfer",
      "type": "event"
    },
    {
      "anonymous": false,
      "inputs": [
        {
          "indexed": true,
          "internalType": "address",
          "name": "beneficiary",
          "type": "address"
        },
        {
          "indexed": false,
          "internalType": "uint256",
          "name": "amount",
          "type": "uint256"
        },
        {
          "indexed": false,
          "internalType": "uint256",
          "name": "duration",
          "type": "uint256"
        }
      ],
      "name": "VestingScheduleCreated",
      "type": "event"
    },
    {
      "inputs": [],
      "name": "COMMUNITY_ALLOCATION",
      "outputs": [
        {
          "internalType": "uint256",
          "name": "",
          "type": "uint256"
        }
      ],
      "stateMutability": "view",
      "type": "function"
    },
    {
      "inputs": [],
      "name": "LIQUIDITY_ALLOCATION",
      "outputs": [
        {
          "internalType": "uint256",
          "name": "",
          "type": "uint256"
        }
      ],
      "stateMutability": "view",
      "type": "function"
    },
    {
      "inputs": [],
      "name": "TEAM_ALLOCATION",
      "outputs": [
        {
          "internalType": "uint256",
          "name": "",
          "type": "uint256"
        }
      ],
      "stateMutability": "view",
      "type": "function"
    },
    {
      "inputs": [],
      "name": "TOTAL_SUPPLY",
      "outputs": [
        {
          "internalType": "uint256",
          "name": "",
          "type": "uint256"
        }
      ],
      "stateMutability": "view",
      "type": "function"
    },
    {
      "inputs": [],
      "name": "TREASURY_ALLOCATION",
      "outputs": [
        {
          "internalType": "uint256",
          "name": "",
          "type": "uint256"
        }
      ],
      "stateMutability": "view",
      "type": "function"
    },
    {
      "inputs": [
        {
          "internalType": "address",
          "name": "owner",
          "type": "address"
        },
        {
          "internalType": "address",
          "name": "spender",
          "type": "address"
        }
      ],
      "name": "allowance",
      "outputs": [
        {
          "internalType": "uint256",
          "name": "",
          "type": "uint256"
        }
      ],
      "stateMutability": "view",
      "type": "function"
    },
    {
      "inputs": [
        {
          "internalType": "address",
          "name": "spender",
          "type": "address"
        },
        {
          "internalType": "uint256",
          "name": "value",
          "type": "uint256"
        }
      ],
      "name": "approve",
      "outputs": [
        {
          "internalType": "bool",
          "name": "",
          "type": "bool"
        }
      ],
      "stateMutability": "nonpayable",
      "type": "function"
    },
    {
      "inputs": [
        {
          "internalType": "address",
          "name": "account",
          "type": "address"
        }
      ],
      "name": "balanceOf",
      "outputs": [
        {
          "internalType": "uint256",
          "name": "",
          "type": "uint256"
        }
      ],
      "stateMutability": "view",
      "type": "function"
    },
    {
      "inputs": [
        {
          "internalType": "uint256",
          "name": "value",
          "type": "uint256"
        }
      ],
      "name": "burn",
      "outputs": [],
      "stateMutability": "nonpayable",
      "type": "function"
    },
    {
      "inputs": [
        {
          "internalType": "address",
          "name": "account",
          "type": "address"
        },
        {
          "internalType": "uint256",
          "name": "value",
          "type": "uint256"
        }
      ],
      "name": "burnFrom",
      "outputs": [],
      "stateMutability": "nonpayable",
      "type": "function"
    },
    {
      "inputs": [],
      "name": "claimRewards",
      "outputs": [],
      "stateMutability": "nonpayable",
      "type": "function"
    },
    {
      "inputs": [
        {
          "internalType": "address",
          "name": "beneficiary",
          "type": "address"
        },
        {
          "internalType": "uint256",
          "name": "amount",
          "type": "uint256"
        },
        {
          "internalType": "uint256",
          "name": "duration",
          "type": "uint256"
        }
      ],
      "name": "createVestingSchedule",
      "outputs": [],
      "stateMutability": "nonpayable",
      "type": "function"
    },
    {
      "inputs": [],
      "name": "decimals",
      "outputs": [
        {
          "internalType": "uint8",
          "name": "",
          "type": "uint8"
        }
      ],
      "stateMutability": "view",
      "type": "function"
    },
    {
      "inputs": [
        {
          "internalType": "address",
          "name": "user",
          "type": "address"
        }
      ],
      "name": "getPendingRewards",
      "outputs": [
        {
          "internalType": "uint256",
          "name": "",
          "type": "uint256"
        }
      ],
      "stateMutability": "view",
      "type": "function"
    },
    {
      "inputs": [
        {
          "internalType": "address",
          "name": "user",
          "type": "address"
        }
      ],
      "name": "getStakeInfo",
      "outputs": [
        {
          "internalType": "uint256",
          "name": "amount",
          "type": "uint256"
        },
        {
          "internalType": "uint256",
          "name": "startTime",
          "type": "uint256"
        },
        {
          "internalType": "uint256",
          "name": "pendingRewards",
          "type": "uint256"
        }
      ],
      "stateMutability": "view",
      "type": "function"
    },
    {
      "inputs": [],
      "name": "name",
      "outputs": [
        {
          "internalType": "string",
          "name": "",
          "type": "string"
        }
      ],
      "stateMutability": "view",
      "type": "function"
    },
    {
      "inputs": [],
      "name": "owner",
      "outputs": [
        {
          "internalType": "address",
          "name": "",
          "type": "address"
        }
      ],
      "stateMutability": "view",
      "type": "function"
    },
    {
      "inputs": [],
      "name": "releaseVestedTokens",
      "outputs": [],
      "stateMutability": "nonpayable",
      "type": "function"
    },
    {
      "inputs": [],
      "name": "renounceOwnership",
      "outputs": [],
      "stateMutability": "nonpayable",
      "type": "function"
    },
    {
      "inputs": [],
      "name": "rewardRate",
      "outputs": [
        {
          "internalType": "uint256",
          "name": "",
          "type": "uint256"
        }
      ],
      "stateMutability": "view",
      "type": "function"
    },
    {
      "inputs": [
        {
          "internalType": "uint256",
          "name": "newRate",
          "type": "uint256"
        }
      ],
      "name": "setRewardRate",
      "outputs": [],
      "stateMutability": "nonpayable",
      "type": "function"
    },
    {
      "inputs": [
        {
          "internalType": "uint256",
          "name": "amount",
          "type": "uint256"
        }
      ],
      "name": "stake",
      "outputs": [],
      "stateMutability": "nonpayable",
      "type": "function"
    },
    {
      "inputs": [
        {
          "internalType": "address",
          "name": "",
          "type": "address"
        }
      ],
      "name": "stakes",
      "outputs": [
        {
          "internalType": "uint256",
          "name": "amount",
          "type": "uint256"
        },
        {
          "internalType": "uint256",
          "name": "startTime",
          "type": "uint256"
        },
        {
          "internalType": "uint256",
          "name": "lastClaimTime",
          "type": "uint256"
        }
      ],
      "stateMutability": "view",
      "type": "function"
    },
    {
      "inputs": [],
      "name": "symbol",
      "outputs": [
        {
          "internalType": "string",
          "name": "",
          "type": "string"
        }
      ],
      "stateMutability": "view",
      "type": "function"
    },
    {
      "inputs": [],
      "name": "totalStaked",
      "outputs": [
        {
          "internalType": "uint256",
          "name": "",
          "type": "uint256"
        }
      ],
      "stateMutability": "view",
      "type": "function"
    },
    {
      "inputs": [],
      "name": "totalSupply",
      "outputs": [
        {
          "internalType": "uint256",
          "name": "",
          "type": "uint256"
        }
      ],
      "stateMutability": "view",
      "type": "function"
    },
    {
      "inputs": [
        {
          "internalType": "address",
          "name": "to",
          "type": "address"
        },
        {
          "internalType": "uint256",
          "name": "value",
          "type": "uint256"
        }
      ],
      "name": "transfer",
      "outputs": [
        {
          "internalType": "bool",
          "name": "",
          "type": "bool"
        }
      ],
      "stateMutability": "nonpayable",
      "type": "function"
    },
    {
      "inputs": [
        {
          "internalType": "address",
          "name": "from",
          "type": "address"
        },
        {
          "internalType": "address",
          "name": "to",
          "type": "address"
        },
        {
          "internalType": "uint256",
          "name": "value",
          "type": "uint256"
        }
      ],
      "name": "transferFrom",
      "outputs": [
        {
          "internalType": "bool",
          "name": "",
          "type": "bool"
        }
      ],
      "stateMutability": "nonpayable",
      "type": "function"
    },
    {
      "inputs": [
        {
          "internalType": "address",
          "name": "newOwner",
          "type": "address"
        }
      ],
      "name": "transferOwnership",
      "outputs": [],
      "stateMutability": "nonpayable",
      "type": "function"
    },
    {
      "inputs": [
        {
          "internalType": "uint256",
          "name": "amount",
          "type": "uint256"
        }
      ],
      "name": "unstake",
      "outputs": [],
      "stateMutability": "nonpayable",
      "type": "function"
    },
    {
      "inputs": [
        {
          "internalType": "address",
          "name": "",
          "type": "address"
        }
      ],
      "name": "vestingSchedules",
      "outputs": [
        {
          "internalType": "uint256",
          "name": "totalAmount",
          "type": "uint256"
        },
        {
          "internalType": "uint256",
          "name": "releasedAmount",
          "type": "uint256"
        },
        {
          "internalType": "uint256",
          "name": "startTime",
          "type": "uint256"
        },
        {
          "internalType": "uint256",
          "name": "duration",
          "type": "uint256"
        }
      ],
      "stateMutability": "view",
      "type": "function"
    }
  ],
  "bytecode": "0x60806040526103e86009553480156200001757600080fd5b50336040518060400160405280601081526020016f2cb4b2b6322337b933b2902a37b5b2b760811b8152506040518060400160405280600681526020016559464f52474560d01b815250816003908162000072919062000346565b50600462000081828262000346565b5050506001600160a01b038116620000b457604051631e4fbdf760e01b8152600060048201526024015b60405180910390fd5b620000bf81620000de565b50620000d8336b033b2e3c9fd0803ce800000062000130565b6200043a565b600580546001600160a01b038381166001600160a01b0319831681179093556040519116919082907f8be0079c531659141344cd1fd0a4f28419497f9722a3daafe3b4186f6b6457e090600090a35050565b6001600160a01b0382166200015c5760405163ec442f0560e01b815260006004820152602401620000ab565b6200016a600083836200016e565b5050565b6001600160a01b0383166200019d57806002600082825462000191919062000412565b90915550620002119050565b6001600160a01b03831660009081526020819052604090205481811015620001f25760405163391434e360e21b81526001600160a01b03851660048201526024810182905260448101839052606401620000ab565b6001600160a01b03841660009081526020819052604090209082900390555b6001600160a01b0382166200022f576002805482900390556200024e565b6001600160a01b03821660009081526020819052604090208054820190555b816001600160a01b0316836001600160a01b03167fddf252ad1be2c89b69c2b068fc378daa952ba7f163c4a11628f55a4df523b3ef836040516200029491815260200190565b60405180910390a3505050565b634e487b7160e01b600052604160045260246000fd5b600181811c90821680620002cc57607f821691505b602082108103620002ed57634e487b7160e01b600052602260045260246000fd5b50919050565b601f8211156200034157600081815260208120601f850160051c810160208610156200031c5750805b601f850160051c820191505b818110156200033d5782815560010162000328565b5050505b505050565b81516001600160401b03811115620003625762000362620002a1565b6200037a81620003738454620002b7565b84620002f3565b602080601f831160018114620003b25760008415620003995750858301515b600019600386901b1c1916600185901b1785556200033d565b600085815260208120601f198616915b82811015620003e357888601518255948401946001909101908401620003c2565b5085821015620004025787850151600019600388901b60f8161c191681555b5050505050600190811b01905550565b808201808211156200043457634e487b7160e01b600052601160045260246000fd5b92915050565b61143d806200044a6000396000f3fe608060405234801561001057600080fd5b50600436106101e55760003560e01c8063817b1cd21161010f578063bf1ad7e0116100a2578063f6ed201711610071578063f6ed20171461042a578063f9428f381461043d578063fd99cbed1461043d578063fdb20ccb1461044f57600080fd5b8063bf1ad7e014610380578063c3453153146103cb578063dd62ed3e146103de578063f2fde38b1461041757600080fd5b8063993eb1c5116100de578063993eb1c5146103805780639e447fc614610392578063a694fc3a146103a5578063a9059cbb146103b857600080fd5b8063817b1cd2146103415780638da5cb5b1461034a578063902d55a51461036557806395d89b411461037857600080fd5b8063372500ab1161018757806370a082311161015657806370a08231146102f4578063715018a61461031d57806379cc6790146103255780637b0a47ee1461033857600080fd5b8063372500ab146102be57806342966c68146102c657806354dd1da4146102d9578063658b06fc146102e157600080fd5b806318160ddd116101c357806318160ddd1461027557806323b872dd146102875780632e17de781461029a578063313ce567146102af57600080fd5b806306fdde03146101ea578063095ea7b31461020857806316934fc41461022b575b600080fd5b6101f26104a4565b6040516101ff91906111bb565b60405180910390f35b61021b610216366004611225565b610536565b60405190151581526020016101ff565b61025a61023936600461124f565b60076020526000908152604090208054600182015460029092015490919083565b604080519384526020840192909252908201526060016101ff565b6002545b6040519081526020016101ff565b61021b610295366004611271565b610550565b6102ad6102a83660046112ad565b610574565b005b604051601281526020016101ff565b6102ad61067d565b6102ad6102d43660046112ad565b6106cf565b6102ad6106dc565b6102ad6102ef3660046112c6565b6107cc565b61027961030236600461124f565b6001600160a01b031660009081526020819052604090205490565b6102ad610970565b6102ad610333366004611225565b610982565b61027960095481565b61027960085481565b6005546040516001600160a01b0390911681526020016101ff565b6102796b033b2e3c9fd0803ce800000081565b6101f261099b565b6102796af8277896582678ac00000081565b6102ad6103a03660046112ad565b6109aa565b6102ad6103b33660046112ad565b6109f9565b61021b6103c6366004611225565b610b22565b61025a6103d936600461124f565b610b30565b6102796103ec3660046112f9565b6001600160a01b03918216600090815260016020908152604080832093909416825291909152205490565b6102ad61042536600461124f565b610bc5565b61027961043836600461124f565b610c00565b6102796aa56fa5b99019a5c800000081565b61048461045d36600461124f565b60066020526000908152604090208054600182015460028301546003909301549192909184565b6040805194855260208501939093529183015260608201526080016101ff565b6060600380546104b39061132c565b80601f01602080910402602001604051908101604052809291908181526020018280546104df9061132c565b801561052c5780601f106105015761010080835404028352916020019161052c565b820191906000526020600020905b81548152906001019060200180831161050f57829003601f168201915b5050505050905090565b600033610544818585610c9a565b60019150505b92915050565b60003361055e858285610ca7565b610569858585610d26565b506001949350505050565b6000811161059d5760405162461bcd60e51b815260040161059490611366565b60405180910390fd5b336000908152600760205260409020548111156105f25760405162461bcd60e51b8152602060048201526013602482015272125b9cdd59999a58da595b9d081cdd185ad959606a1b6044820152606401610594565b6105fb33610d85565b336000908152600760205260408120805483929061061a9084906113a8565b92505081905550806008600082825461063391906113a8565b909155506106449050303383610d26565b60405181815233907f9845e367b683334e5c0b12d7b81721ac518e649376fa65e3d68324e8f34f2679906020015b60405180910390a250565b336000908152600760205260409020546106c45760405162461bcd60e51b81526020600482015260086024820152674e6f207374616b6560c01b6044820152606401610594565b6106cd33610d85565b565b6106d93382610e41565b50565b336000908152600660205260409020805461072f5760405162461bcd60e51b81526020600482015260136024820152724e6f2076657374696e67207363686564756c6560681b6044820152606401610594565b600061073a33610e77565b9050600082600101548261074e91906113a8565b9050600081116107975760405162461bcd60e51b81526020600482015260146024820152734e6f20746f6b656e7320746f2072656c6561736560601b6044820152606401610594565b808360010160008282546107ab91906113bb565b90915550506005546107c7906001600160a01b03163383610d26565b505050565b6107d4610f07565b6001600160a01b0383166108205760405162461bcd60e51b8152602060048201526013602482015272496e76616c69642062656e656669636961727960681b6044820152606401610594565b600082116108405760405162461bcd60e51b815260040161059490611366565b600081116108875760405162461bcd60e51b815260206004820152601460248201527304475726174696f6e206d757374206265203e20360641b6044820152606401610594565b6001600160a01b038316600090815260066020526040902054156108df5760405162461bcd60e51b815260206004820152600f60248201526e5363686564756c652065786973747360881b6044820152606401610594565b604080516080810182528381526000602080830182815242848601908152606085018781526001600160a01b038a1680865260068552948790209551865591516001860155516002850155516003909301929092558251858152918201849052917f402b9fa52520ce724d8e25ad1521f70484bd3c833f98ed26451d7c9666820203910160405180910390a2505050565b610978610f07565b6106cd6000610f34565b61098d823383610ca7565b6109978282610e41565b5050565b6060600480546104b39061132c565b6109b2610f07565b6113888111156109f45760405162461bcd60e51b815260206004820152600d60248201526c0a4c2e8ca40e8dede40d0d2ced609b1b6044820152606401610594565b600955565b60008111610a195760405162461bcd60e51b815260040161059490611366565b33600090815260208190526040902054811115610a6f5760405162461bcd60e51b8152602060048201526014602482015273496e73756666696369656e742062616c616e636560601b6044820152606401610594565b3360009081526007602052604090205415610a8d57610a8d33610d85565b610a98333083610d26565b3360009081526007602052604081208054839290610ab79084906113bb565b9091555050336000908152600760205260408120426001820181905560029091015560088054839290610aeb9084906113bb565b909155505060405181815233907fb539ca1e5c8d398ddf1c41c30166f33404941683be4683319b57669a93dad4ef90602001610672565b600033610544818585610d26565b6001600160a01b038116600090815260076020908152604080832081516060810183528154815260018201549381019390935260020154908201819052829182918290610b7d90426113a8565b9050600064496cebb800600954838560000151610b9a91906113ce565b610ba491906113ce565b610bae91906113e5565b835160209094015193989397509550919350505050565b610bcd610f07565b6001600160a01b038116610bf757604051631e4fbdf760e01b815260006004820152602401610594565b6106d981610f34565b6001600160a01b03811660009081526007602090815260408083208151606081018352815480825260018301549482019490945260029091015491810191909152908203610c515750600092915050565b6000816040015142610c6391906113a8565b905064496cebb800600954828460000151610c7e91906113ce565b610c8891906113ce565b610c9291906113e5565b949350505050565b6107c78383836001610f86565b6001600160a01b03838116600090815260016020908152604080832093861683529290522054600019811015610d205781811015610d1157604051637dc7a0d960e11b81526001600160a01b03841660048201526024810182905260448101839052606401610594565b610d2084848484036000610f86565b50505050565b6001600160a01b038316610d5057604051634b637e8f60e11b815260006004820152602401610594565b6001600160a01b038216610d7a5760405163ec442f0560e01b815260006004820152602401610594565b6107c783838361105b565b6001600160a01b03811660009081526007602052604081206002810154909190610daf90426113a8565b9050600064496cebb800600954838560000154610dcc91906113ce565b610dd691906113ce565b610de091906113e5565b90508015610d2057426002840155610df88482611185565b836001600160a01b03167ffc30cddea38e2bf4d6ea7d3f9ed3b6ad7f176419f4963bd81318067a4aee73fe82604051610e3391815260200190565b60405180910390a250505050565b6001600160a01b038216610e6b57604051634b637e8f60e11b815260006004820152602401610594565b6109978260008361105b565b6001600160a01b03811660009081526006602090815260408083208151608081018352815481526001820154938101939093526002810154918301829052600301546060830152421015610ece5750600092915050565b6000816040015142610ee091906113a8565b905081606001518110610ef557505192915050565b60608201518251610c889083906113ce565b6005546001600160a01b031633146106cd5760405163118cdaa760e01b8152336004820152602401610594565b600580546001600160a01b038381166001600160a01b0319831681179093556040519116919082907f8be0079c531659141344cd1fd0a4f28419497f9722a3daafe3b4186f6b6457e090600090a35050565b6001600160a01b038416610fb05760405163e602df0560e01b815260006004820152602401610594565b6001600160a01b038316610fda57604051634a1406b160e11b815260006004820152602401610594565b6001600160a01b0380851660009081526001602090815260408083209387168352929052208290558015610d2057826001600160a01b0316846001600160a01b03167f8c5be1e5ebec7d5bd14f71427d1e84f3dd0314c0f7b2291e5b200ac8c7c3b9258460405161104d91815260200190565b60405180910390a350505050565b6001600160a01b03831661108657806002600082825461107b91906113bb565b909155506110f89050565b6001600160a01b038316600090815260208190526040902054818110156110d95760405163391434e360e21b81526001600160a01b03851660048201526024810182905260448101839052606401610594565b6001600160a01b03841660009081526020819052604090209082900390555b6001600160a01b03821661111457600280548290039055611133565b6001600160a01b03821660009081526020819052604090208054820190555b816001600160a01b0316836001600160a01b03167fddf252ad1be2c89b69c2b068fc378daa952ba7f163c4a11628f55a4df523b3ef8360405161117891815260200190565b60405180910390a3505050565b6001600160a01b0382166111af5760405163ec442f0560e01b815260006004820152602401610594565b6109976000838361105b565b600060208083528351808285015260005b818110156111e8578581018301518582016040015282016111cc565b506000604082860101526040601f19601f8301168501019250505092915050565b80356001600160a01b038116811461122057600080fd5b919050565b6000806040838503121561123857600080fd5b61124183611209565b946020939093013593505050565b60006020828403121561126157600080fd5b61126a82611209565b9392505050565b60008060006060848603121561128657600080fd5b61128f84611209565b925061129d60208501611209565b9150604084013590509250925092565b6000602082840312156112bf57600080fd5b5035919050565b6000806000606084860312156112db57600080fd5b6112e484611209565b95602085013595506040909401359392505050565b6000806040838503121561130c57600080fd5b61131583611209565b915061132360208401611209565b90509250929050565b600181811c9082168061134057607f821691505b60208210810361136057634e487b7160e01b600052602260045260246000fd5b50919050565b6020808252601290820152710416d6f756e74206d757374206265203e20360741b604082015260600190565b634e487b7160e01b600052601160045260246000fd5b8181038181111561054a5761054a611392565b8082018082111561054a5761054a611392565b808202811582820484141761054a5761054a611392565b60008261140257634e487b7160e01b600052601260045260246000fd5b50049056fea2646970667358221220245f8decc76549d9856db0d7d040f286757c0a0ecfbc923289b70116df90bd7c64736f6c63430008140033",
  "linkReferences": {},
  "deployedLinkReferences": {}
}