{"contracts/YieldForge/YieldForgeVault.sol":{"YieldForgeVault":{"abi":[{"inputs":[{"internalType":"address","name":"_depositToken","type":"address"},{"internalType":"address","name":"_feeRecipient","type":"address"}],"stateMutability":"nonpayable","type":"constructor"},{"inputs":[],"name":"EnforcedPause","type":"error"},{"inputs":[],"name":"ExpectedPause","type":"error"},{"inputs":[{"internalType":"address","name":"owner","type":"address"}],"name":"OwnableInvalidOwner","type":"error"},{"inputs":[{"internalType":"address","name":"account","type":"address"}],"name":"OwnableUnauthorizedAccount","type":"error"},{"inputs":[],"name":"ReentrancyGuardReentrantCall","type":"error"},{"inputs":[{"internalType":"address","name":"token","type":"address"}],"name":"SafeERC20FailedOperation","type":"error"},{"anonymous":false,"inputs":[{"indexed":true,"internalType":"address","name":"user","type":"address"},{"indexed":false,"internalType":"uint256","name":"amount","type":"uint256"},{"indexed":false,"internalType":"uint256","name":"shares","type":"uint256"}],"name":"Deposit","type":"event"},{"anonymous":false,"inputs":[{"indexed":true,"internalType":"address","name":"user","type":"address"},{"indexed":false,"internalType":"uint256","name":"yield","type":"uint256"}],"name":"Harvest","type":"event"},{"anonymous":false,"inputs":[{"indexed":true,"internalType":"address","name":"previousOwner","type":"address"},{"indexed":true,"internalType":"address","name":"newOwner","type":"address"}],"name":"OwnershipTransferred","type":"event"},{"anonymous":false,"inputs":[{"indexed":false,"internalType":"address","name":"account","type":"address"}],"name":"Paused","type":"event"},{"anonymous":false,"inputs":[{"indexed":false,"internalType":"uint256","name":"newFee","type":"uint256"}],"name":"PerformanceFeeUpdated","type":"event"},{"anonymous":false,"inputs":[{"indexed":true,"internalType":"uint256","name":"strategyId","type":"uint256"},{"indexed":false,"internalType":"address","name":"strategyAddress","type":"address"},{"indexed":false,"internalType":"uint256","name":"allocation","type":"uint256"}],"name":"StrategyAdded","type":"event"},{"anonymous":false,"inputs":[{"indexed":true,"internalType":"uint256","name":"strategyId","type":"uint256"},{"indexed":false,"internalType":"uint256","name":"newAllocation","type":"uint256"}],"name":"StrategyUpdated","type":"event"},{"anonymous":false,"inputs":[{"indexed":false,"internalType":"address","name":"account","type":"address"}],"name":"Unpaused","type":"event"},{"anonymous":false,"inputs":[{"indexed":true,"internalType":"address","name":"user","type":"address"},{"indexed":false,"internalType":"uint256","name":"amount","type":"uint256"},{"indexed":false,"internalType":"uint256","name":"shares","type":"uint256"}],"name":"Withdraw","type":"event"},{"inputs":[{"internalType":"address","name":"strategyAddress","type":"address"},{"internalType":"uint256","name":"allocation","type":"uint256"}],"name":"addStrategy","outputs":[],"stateMutability":"nonpayable","type":"function"},{"inputs":[{"internalType":"uint256","name":"amount","type":"uint256"}],"name":"deposit","outputs":[],"stateMutability":"nonpayable","type":"function"},{"inputs":[],"name":"depositToken","outputs":[{"internalType":"contract IERC20","name":"","type":"address"}],"stateMutability":"view","type":"function"},{"inputs":[],"name":"feeRecipient","outputs":[{"internalType":"address","name":"","type":"address"}],"stateMutability":"view","type":"function"},{"inputs":[{"internalType":"address","name":"user","type":"address"}],"name":"getUserBalance","outputs":[{"internalType":"uint256","name":"","type":"uint256"}],"stateMutability":"view","type":"function"},{"inputs":[],"name":"getVaultStats","outputs":[{"internalType":"uint256","name":"_totalAssets","type":"uint256"},{"internalType":"uint256","name":"_totalShares","type":"uint256"},{"internalType":"uint256","name":"_strategyCount","type":"uint256"},{"internalType":"uint256","name":"_performanceFee","type":"uint256"}],"stateMutability":"view","type":"function"},{"inputs":[{"internalType":"address","name":"user","type":"address"}],"name":"harvest","outputs":[{"internalType":"uint256","name":"","type":"uint256"}],"stateMutability":"nonpayable","type":"function"},{"inputs":[],"name":"owner","outputs":[{"internalType":"address","name":"","type":"address"}],"stateMutability":"view","type":"function"},{"inputs":[],"name":"pause","outputs":[],"stateMutability":"nonpayable","type":"function"},{"inputs":[],"name":"paused","outputs":[{"internalType":"bool","name":"","type":"bool"}],"stateMutability":"view","type":"function"},{"inputs":[],"name":"performanceFee","outputs":[{"internalType":"uint256","name":"","type":"uint256"}],"stateMutability":"view","type":"function"},{"inputs":[],"name":"renounceOwnership","outputs":[],"stateMutability":"nonpayable","type":"function"},{"inputs":[{"internalType":"uint256","name":"newFee","type":"uint256"}],"name":"setPerformanceFee","outputs":[],"stateMutability":"nonpayable","type":"function"},{"inputs":[{"internalType":"uint256","name":"","type":"uint256"}],"name":"strategies","outputs":[{"internalType":"address","name":"strategyAddress","type":"address"},{"internalType":"uint256","name":"allocation","type":"uint256"},{"internalType":"bool","name":"active","type":"bool"},{"internalType":"uint256","name":"totalDeposited","type":"uint256"}],"stateMutability":"view","type":"function"},{"inputs":[],"name":"strategyCount","outputs":[{"internalType":"uint256","name":"","type":"uint256"}],"stateMutability":"view","type":"function"},{"inputs":[],"name":"totalAssets","outputs":[{"internalType":"uint256","name":"","type":"uint256"}],"stateMutability":"view","type":"function"},{"inputs":[],"name":"totalShares","outputs":[{"internalType":"uint256","name":"","type":"uint256"}],"stateMutability":"view","type":"function"},{"inputs":[{"internalType":"address","name":"newOwner","type":"address"}],"name":"transferOwnership","outputs":[],"stateMutability":"nonpayable","type":"function"},{"inputs":[],"name":"unpause","outputs":[],"stateMutability":"nonpayable","type":"function"},{"inputs":[{"internalType":"uint256","name":"strategyId","type":"uint256"},{"internalType":"uint256","name":"newAllocation","type":"uint256"}],"name":"updateStrategyAllocation","outputs":[],"stateMutability":"nonpayable","type":"function"},{"inputs":[{"internalType":"address","name":"","type":"address"}],"name":"userDeposits","outputs":[{"internalType":"uint256","name":"amount","type":"uint256"},{"internalType":"uint256","name":"shares","type":"uint256"},{"internalType":"uint256","name":"depositTime","type":"uint256"},{"internalType":"uint256","name":"lastHarvestTime","type":"uint256"}],"stateMutability":"view","type":"function"},{"inputs":[{"internalType":"uint256","name":"shares","type":"uint256"}],"name":"withdraw","outputs":[],"stateMutability":"nonpayable","type":"function"}],"evm":{"bytecode":{"linkReferences":{},"object":"60a060405260326008553480156200001657600080fd5b50604051620011d8380380620011d88339810160408190526200003991620001a7565b33806200006157604051631e4fbdf760e01b8152600060048201526024015b60405180910390fd5b6200006c816200013a565b50600180556001600160a01b038216620000b95760405162461bcd60e51b815260206004820152600d60248201526c24b73b30b634b2103a37b5b2b760991b604482015260640162000058565b6001600160a01b038116620001115760405162461bcd60e51b815260206004820152601560248201527f496e76616c69642066656520726563697069656e740000000000000000000000604482015260640162000058565b6001600160a01b03918216608052600980546001600160a01b03191691909216179055620001df565b600080546001600160a01b038381166001600160a01b0319831681178455604051919092169283917f8be0079c531659141344cd1fd0a4f28419497f9722a3daafe3b4186f6b6457e09190a35050565b80516001600160a01b0381168114620001a257600080fd5b919050565b60008060408385031215620001bb57600080fd5b620001c6836200018a565b9150620001d6602084016200018a565b90509250929050565b608051610fc862000210600039600081816102b6015281816104ad0152818161063501526108ee0152610fc86000f3fe608060405234801561001057600080fd5b50600436106101425760003560e01c8063715018a6116100b8578063b6b55f251161007c578063b6b55f251461029e578063c89039c5146102b1578063c9411e22146102d8578063d574ea3d146102eb578063f2fde38b14610360578063fe1148e11461037357600080fd5b8063715018a6146102635780638456cb591461026b57806387788782146102735780638da5cb5b1461027c578063a59aa5a61461028d57600080fd5b80633a98ef391161010a5780633a98ef39146101eb5780633f4ba83a146101f457806346904840146101fc57806347734892146102275780635c975abb1461023a57806370897b231461025057600080fd5b806301e1d114146101475780630ba36dcd146101635780630e5c011e146101ba57806322068b44146101cd5780632e1a7d4d146101d6575b600080fd5b61015060075481565b6040519081526020015b60405180910390f35b61019a610171366004610e7e565b600360208190526000918252604090912080546001820154600283015492909301549092919084565b60408051948552602085019390935291830152606082015260800161015a565b6101506101c8366004610e7e565b610386565b61015060055481565b6101e96101e4366004610e99565b61053b565b005b61015060065481565b6101e96106a6565b60095461020f906001600160a01b031681565b6040516001600160a01b03909116815260200161015a565b610150610235366004610e7e565b6106b8565b60025460ff16604051901515815260200161015a565b6101e961025e366004610e99565b610734565b6101e96107b8565b6101e96107ca565b61015060085481565b6000546001600160a01b031661020f565b60075460065460055460085461019a565b6101e96102ac366004610e99565b6107da565b61020f7f000000000000000000000000000000000000000000000000000000000000000081565b6101e96102e6366004610eb2565b61094e565b6103306102f9366004610e99565b60046020526000908152604090208054600182015460028301546003909301546001600160a01b0390921692909160ff9091169084565b604080516001600160a01b039095168552602085019390935290151591830191909152606082015260800161015a565b6101e961036e366004610e7e565b610ab5565b6101e9610381366004610edc565b610af0565b6000610390610bd6565b6001600160a01b038216600090815260036020526040902080546103e85760405162461bcd60e51b815260206004820152600a602482015269139bc819195c1bdcda5d60b21b60448201526064015b60405180910390fd5b60008160030154426103fa9190610f14565b9050600063bbf81e008284600001546104139190610f2d565b61041e90600c610f2d565b6104289190610f44565b90508015610525576000612710600854836104439190610f2d565b61044d9190610f44565b9050600061045b8284610f14565b9050808560000160008282546104719190610f66565b909155505042600386015560078054829190600090610491908490610f66565b909155505081156104d6576009546104d6906001600160a01b037f00000000000000000000000000000000000000000000000000000000000000008116911684610c00565b866001600160a01b03167fc9695243a805adb74c91f28311176c65b417e842d5699893cef56d18bfa48cba8260405161051191815260200190565b60405180910390a2945061052d9350505050565b600093505050505b61053660018055565b919050565b610543610bd6565b3360009081526003602052604090208115801590610565575080600101548211155b6105a25760405162461bcd60e51b815260206004820152600e60248201526d496e76616c69642073686172657360901b60448201526064016103df565b6000600654600754846105b59190610f2d565b6105bf9190610f44565b9050808260000160008282546105d59190610f14565b92505081905550828260010160008282546105f09190610f14565b9250508190555082600660008282546106099190610f14565b9250508190555080600760008282546106229190610f14565b9091555061065c90506001600160a01b037f0000000000000000000000000000000000000000000000000000000000000000163383610c00565b604080518281526020810185905233917ff279e6a1f5e320cca91135676d9cb6e44ca8a08c0b88342bcdb1144f6511b56891015b60405180910390a250506106a360018055565b50565b6106ae610c64565b6106b6610c91565b565b6001600160a01b03811660009081526003602081815260408084208151608081018352815481526001820154938101849052600282015492810192909252909201546060830152820361070e5750600092915050565b60065460075482602001516107239190610f2d565b61072d9190610f44565b9392505050565b61073c610c64565b6103e881111561077d5760405162461bcd60e51b815260206004820152600c60248201526b08ccaca40e8dede40d0d2ced60a31b60448201526064016103df565b60088190556040518181527f9b49d0cd76012d9c67241c2f68f836efbaf50ea29901a250040671402d5263f59060200160405180910390a150565b6107c0610c64565b6106b66000610ce3565b6107d2610c64565b6106b6610d33565b6107e2610bd6565b6107ea610d70565b6000811161082f5760405162461bcd60e51b81526020600482015260126024820152710416d6f756e74206d757374206265203e20360741b60448201526064016103df565b600060065460001461085a5760075460065461084b9084610f2d565b6108559190610f44565b61085c565b815b33600090815260036020526040812080549293509184918391610880908490610f66565b925050819055508181600101600082825461089b9190610f66565b909155505042600282018190556003820155600680548391906000906108c2908490610f66565b9250508190555082600760008282546108db9190610f66565b9091555061091690506001600160a01b037f000000000000000000000000000000000000000000000000000000000000000016333086610d94565b604080518481526020810184905233917f90890809c654f11d6e72a28fa60149770a0d11ec6c92319d6ceb2bb0a4ea1a159101610690565b610956610c64565b6001600160a01b03821661099f5760405162461bcd60e51b815260206004820152601060248201526f496e76616c696420737472617465677960801b60448201526064016103df565b6127108111156109e55760405162461bcd60e51b8152602060048201526011602482015270416c6c6f636174696f6e203e203130302560781b60448201526064016103df565b604080516080810182526001600160a01b038481168083526020808401868152600185870181815260006060880181815260058054835260048752918a9020985189546001600160a01b03191698169790971788559251918701919091555160028601805460ff191691151591909117905592516003909401939093559054835191825291810184905290917fe29e5861eca7c6e4c466b83b182ac36bf926b16e500c62747a7fcd867af8c738910160405180910390a260058054906000610aac83610f79565b91905055505050565b610abd610c64565b6001600160a01b038116610ae757604051631e4fbdf760e01b8152600060048201526024016103df565b6106a381610ce3565b610af8610c64565b6005548210610b3c5760405162461bcd60e51b815260206004820152601060248201526f496e76616c696420737472617465677960801b60448201526064016103df565b612710811115610b825760405162461bcd60e51b8152602060048201526011602482015270416c6c6f636174696f6e203e203130302560781b60448201526064016103df565b600082815260046020526040908190206001018290555182907f4013b0db7cf4aa4abdbe70714f5bcf2f1c3080326667c626ee8cc14a3288282f90610bca9084815260200190565b60405180910390a25050565b600260015403610bf957604051633ee5aeb560e01b815260040160405180910390fd5b6002600155565b6040516001600160a01b03838116602483015260448201839052610c5f91859182169063a9059cbb906064015b604051602081830303815290604052915060e01b6020820180516001600160e01b038381831617835250505050610dd3565b505050565b6000546001600160a01b031633146106b65760405163118cdaa760e01b81523360048201526024016103df565b610c99610e44565b6002805460ff191690557f5db9ee0a495bf2e6ff9c91a7834c1ba4fdd244a5e8aa4e537bd38aeae4b073aa335b6040516001600160a01b03909116815260200160405180910390a1565b600080546001600160a01b038381166001600160a01b0319831681178455604051919092169283917f8be0079c531659141344cd1fd0a4f28419497f9722a3daafe3b4186f6b6457e09190a35050565b610d3b610d70565b6002805460ff191660011790557f62e78cea01bee320cd4e420270b5ea74000d11b0c9f74754ebdbfc544b05a258610cc63390565b60025460ff16156106b65760405163d93c066560e01b815260040160405180910390fd5b6040516001600160a01b038481166024830152838116604483015260648201839052610dcd9186918216906323b872dd90608401610c2d565b50505050565b600080602060008451602086016000885af180610df6576040513d6000823e3d81fd5b50506000513d91508115610e0e578060011415610e1b565b6001600160a01b0384163b155b15610dcd57604051635274afe760e01b81526001600160a01b03851660048201526024016103df565b60025460ff166106b657604051638dfc202b60e01b815260040160405180910390fd5b80356001600160a01b038116811461053657600080fd5b600060208284031215610e9057600080fd5b61072d82610e67565b600060208284031215610eab57600080fd5b5035919050565b60008060408385031215610ec557600080fd5b610ece83610e67565b946020939093013593505050565b60008060408385031215610eef57600080fd5b50508035926020909101359150565b634e487b7160e01b600052601160045260246000fd5b81810381811115610f2757610f27610efe565b92915050565b8082028115828204841417610f2757610f27610efe565b600082610f6157634e487b7160e01b600052601260045260246000fd5b500490565b80820180821115610f2757610f27610efe565b600060018201610f8b57610f8b610efe565b506001019056fea26469706673582212200fd7fc8f5a4765e6cb3c904fe6a5254d96b427f3a08b2ac0a43f302a1bbcf45064736f6c63430008140033","opcodes":"PUSH1 0xA0 PUSH1 0x40 MSTORE PUSH1 0x32 PUSH1 0x8 SSTORE CALLVALUE DUP1 ISZERO PUSH3 0x16 JUMPI PUSH1 0x0 DUP1 REVERT JUMPDEST POP PUSH1 0x40 MLOAD PUSH3 0x11D8 CODESIZE SUB DUP1 PUSH3 0x11D8 DUP4 CODECOPY DUP2 ADD PUSH1 0x40 DUP2 SWAP1 MSTORE PUSH3 0x39 SWAP2 PUSH3 0x1A7 JUMP JUMPDEST CALLER DUP1 PUSH3 0x61 JUMPI PUSH1 0x40 MLOAD PUSH4 0x1E4FBDF7 PUSH1 0xE0 SHL DUP2 MSTORE PUSH1 0x0 PUSH1 0x4 DUP3 ADD MSTORE PUSH1 0x24 ADD JUMPDEST PUSH1 0x40 MLOAD DUP1 SWAP2 SUB SWAP1 REVERT JUMPDEST PUSH3 0x6C DUP2 PUSH3 0x13A JUMP JUMPDEST POP PUSH1 0x1 DUP1 SSTORE PUSH1 0x1 PUSH1 0x1 PUSH1 0xA0 SHL SUB DUP3 AND PUSH3 0xB9 JUMPI PUSH1 0x40 MLOAD PUSH3 0x461BCD PUSH1 0xE5 SHL DUP2 MSTORE PUSH1 0x20 PUSH1 0x4 DUP3 ADD MSTORE PUSH1 0xD PUSH1 0x24 DUP3 ADD MSTORE PUSH13 0x24B73B30B634B2103A37B5B2B7 PUSH1 0x99 SHL PUSH1 0x44 DUP3 ADD MSTORE PUSH1 0x64 ADD PUSH3 0x58 JUMP JUMPDEST PUSH1 0x1 PUSH1 0x1 PUSH1 0xA0 SHL SUB DUP2 AND PUSH3 0x111 JUMPI PUSH1 0x40 MLOAD PUSH3 0x461BCD PUSH1 0xE5 SHL DUP2 MSTORE PUSH1 0x20 PUSH1 0x4 DUP3 ADD MSTORE PUSH1 0x15 PUSH1 0x24 DUP3 ADD MSTORE PUSH32 0x496E76616C69642066656520726563697069656E740000000000000000000000 PUSH1 0x44 DUP3 ADD MSTORE PUSH1 0x64 ADD PUSH3 0x58 JUMP JUMPDEST PUSH1 0x1 PUSH1 0x1 PUSH1 0xA0 SHL SUB SWAP2 DUP3 AND PUSH1 0x80 MSTORE PUSH1 0x9 DUP1 SLOAD PUSH1 0x1 PUSH1 0x1 PUSH1 0xA0 SHL SUB NOT AND SWAP2 SWAP1 SWAP3 AND OR SWAP1 SSTORE PUSH3 0x1DF JUMP JUMPDEST PUSH1 0x0 DUP1 SLOAD PUSH1 0x1 PUSH1 0x1 PUSH1 0xA0 SHL SUB DUP4 DUP2 AND PUSH1 0x1 PUSH1 0x1 PUSH1 0xA0 SHL SUB NOT DUP4 AND DUP2 OR DUP5 SSTORE PUSH1 0x40 MLOAD SWAP2 SWAP1 SWAP3 AND SWAP3 DUP4 SWAP2 PUSH32 0x8BE0079C531659141344CD1FD0A4F28419497F9722A3DAAFE3B4186F6B6457E0 SWAP2 SWAP1 LOG3 POP POP JUMP JUMPDEST DUP1 MLOAD PUSH1 0x1 PUSH1 0x1 PUSH1 0xA0 SHL SUB DUP2 AND DUP2 EQ PUSH3 0x1A2 JUMPI PUSH1 0x0 DUP1 REVERT JUMPDEST SWAP2 SWAP1 POP JUMP JUMPDEST PUSH1 0x0 DUP1 PUSH1 0x40 DUP4 DUP6 SUB SLT ISZERO PUSH3 0x1BB JUMPI PUSH1 0x0 DUP1 REVERT JUMPDEST PUSH3 0x1C6 DUP4 PUSH3 0x18A JUMP JUMPDEST SWAP2 POP PUSH3 0x1D6 PUSH1 0x20 DUP5 ADD PUSH3 0x18A JUMP JUMPDEST SWAP1 POP SWAP3 POP SWAP3 SWAP1 POP JUMP JUMPDEST PUSH1 0x80 MLOAD PUSH2 0xFC8 PUSH3 0x210 PUSH1 0x0 CODECOPY PUSH1 0x0 DUP2 DUP2 PUSH2 0x2B6 ADD MSTORE DUP2 DUP2 PUSH2 0x4AD ADD MSTORE DUP2 DUP2 PUSH2 0x635 ADD MSTORE PUSH2 0x8EE ADD MSTORE PUSH2 0xFC8 PUSH1 0x0 RETURN INVALID PUSH1 0x80 PUSH1 0x40 MSTORE CALLVALUE DUP1 ISZERO PUSH2 0x10 JUMPI PUSH1 0x0 DUP1 REVERT JUMPDEST POP PUSH1 0x4 CALLDATASIZE LT PUSH2 0x142 JUMPI PUSH1 0x0 CALLDATALOAD PUSH1 0xE0 SHR DUP1 PUSH4 0x715018A6 GT PUSH2 0xB8 JUMPI DUP1 PUSH4 0xB6B55F25 GT PUSH2 0x7C JUMPI DUP1 PUSH4 0xB6B55F25 EQ PUSH2 0x29E JUMPI DUP1 PUSH4 0xC89039C5 EQ PUSH2 0x2B1 JUMPI DUP1 PUSH4 0xC9411E22 EQ PUSH2 0x2D8 JUMPI DUP1 PUSH4 0xD574EA3D EQ PUSH2 0x2EB JUMPI DUP1 PUSH4 0xF2FDE38B EQ PUSH2 0x360 JUMPI DUP1 PUSH4 0xFE1148E1 EQ PUSH2 0x373 JUMPI PUSH1 0x0 DUP1 REVERT JUMPDEST DUP1 PUSH4 0x715018A6 EQ PUSH2 0x263 JUMPI DUP1 PUSH4 0x8456CB59 EQ PUSH2 0x26B JUMPI DUP1 PUSH4 0x87788782 EQ PUSH2 0x273 JUMPI DUP1 PUSH4 0x8DA5CB5B EQ PUSH2 0x27C JUMPI DUP1 PUSH4 0xA59AA5A6 EQ PUSH2 0x28D JUMPI PUSH1 0x0 DUP1 REVERT JUMPDEST DUP1 PUSH4 0x3A98EF39 GT PUSH2 0x10A JUMPI DUP1 PUSH4 0x3A98EF39 EQ PUSH2 0x1EB JUMPI DUP1 PUSH4 0x3F4BA83A EQ PUSH2 0x1F4 JUMPI DUP1 PUSH4 0x46904840 EQ PUSH2 0x1FC JUMPI DUP1 PUSH4 0x47734892 EQ PUSH2 0x227 JUMPI DUP1 PUSH4 0x5C975ABB EQ PUSH2 0x23A JUMPI DUP1 PUSH4 0x70897B23 EQ PUSH2 0x250 JUMPI PUSH1 0x0 DUP1 REVERT JUMPDEST DUP1 PUSH4 0x1E1D114 EQ PUSH2 0x147 JUMPI DUP1 PUSH4 0xBA36DCD EQ PUSH2 0x163 JUMPI DUP1 PUSH4 0xE5C011E EQ PUSH2 0x1BA JUMPI DUP1 PUSH4 0x22068B44 EQ PUSH2 0x1CD JUMPI DUP1 PUSH4 0x2E1A7D4D EQ PUSH2 0x1D6 JUMPI JUMPDEST PUSH1 0x0 DUP1 REVERT JUMPDEST PUSH2 0x150 PUSH1 0x7 SLOAD DUP2 JUMP JUMPDEST PUSH1 0x40 MLOAD SWAP1 DUP2 MSTORE PUSH1 0x20 ADD JUMPDEST PUSH1 0x40 MLOAD DUP1 SWAP2 SUB SWAP1 RETURN JUMPDEST PUSH2 0x19A PUSH2 0x171 CALLDATASIZE PUSH1 0x4 PUSH2 0xE7E JUMP JUMPDEST PUSH1 0x3 PUSH1 0x20 DUP2 SWAP1 MSTORE PUSH1 0x0 SWAP2 DUP3 MSTORE PUSH1 0x40 SWAP1 SWAP2 KECCAK256 DUP1 SLOAD PUSH1 0x1 DUP3 ADD SLOAD PUSH1 0x2 DUP4 ADD SLOAD SWAP3 SWAP1 SWAP4 ADD SLOAD SWAP1 SWAP3 SWAP2 SWAP1 DUP5 JUMP JUMPDEST PUSH1 0x40 DUP1 MLOAD SWAP5 DUP6 MSTORE PUSH1 0x20 DUP6 ADD SWAP4 SWAP1 SWAP4 MSTORE SWAP2 DUP4 ADD MSTORE PUSH1 0x60 DUP3 ADD MSTORE PUSH1 0x80 ADD PUSH2 0x15A JUMP JUMPDEST PUSH2 0x150 PUSH2 0x1C8 CALLDATASIZE PUSH1 0x4 PUSH2 0xE7E JUMP JUMPDEST PUSH2 0x386 JUMP JUMPDEST PUSH2 0x150 PUSH1 0x5 SLOAD DUP2 JUMP JUMPDEST PUSH2 0x1E9 PUSH2 0x1E4 CALLDATASIZE PUSH1 0x4 PUSH2 0xE99 JUMP JUMPDEST PUSH2 0x53B JUMP JUMPDEST STOP JUMPDEST PUSH2 0x150 PUSH1 0x6 SLOAD DUP2 JUMP JUMPDEST PUSH2 0x1E9 PUSH2 0x6A6 JUMP JUMPDEST PUSH1 0x9 SLOAD PUSH2 0x20F SWAP1 PUSH1 0x1 PUSH1 0x1 PUSH1 0xA0 SHL SUB AND DUP2 JUMP JUMPDEST PUSH1 0x40 MLOAD PUSH1 0x1 PUSH1 0x1 PUSH1 0xA0 SHL SUB SWAP1 SWAP2 AND DUP2 MSTORE PUSH1 0x20 ADD PUSH2 0x15A JUMP JUMPDEST PUSH2 0x150 PUSH2 0x235 CALLDATASIZE PUSH1 0x4 PUSH2 0xE7E JUMP JUMPDEST PUSH2 0x6B8 JUMP JUMPDEST PUSH1 0x2 SLOAD PUSH1 0xFF AND PUSH1 0x40 MLOAD SWAP1 ISZERO ISZERO DUP2 MSTORE PUSH1 0x20 ADD PUSH2 0x15A JUMP JUMPDEST PUSH2 0x1E9 PUSH2 0x25E CALLDATASIZE PUSH1 0x4 PUSH2 0xE99 JUMP JUMPDEST PUSH2 0x734 JUMP JUMPDEST PUSH2 0x1E9 PUSH2 0x7B8 JUMP JUMPDEST PUSH2 0x1E9 PUSH2 0x7CA JUMP JUMPDEST PUSH2 0x150 PUSH1 0x8 SLOAD DUP2 JUMP JUMPDEST PUSH1 0x0 SLOAD PUSH1 0x1 PUSH1 0x1 PUSH1 0xA0 SHL SUB AND PUSH2 0x20F JUMP JUMPDEST PUSH1 0x7 SLOAD PUSH1 0x6 SLOAD PUSH1 0x5 SLOAD PUSH1 0x8 SLOAD PUSH2 0x19A JUMP JUMPDEST PUSH2 0x1E9 PUSH2 0x2AC CALLDATASIZE PUSH1 0x4 PUSH2 0xE99 JUMP JUMPDEST PUSH2 0x7DA JUMP JUMPDEST PUSH2 0x20F PUSH32 0x0 DUP2 JUMP JUMPDEST PUSH2 0x1E9 PUSH2 0x2E6 CALLDATASIZE PUSH1 0x4 PUSH2 0xEB2 JUMP JUMPDEST PUSH2 0x94E JUMP JUMPDEST PUSH2 0x330 PUSH2 0x2F9 CALLDATASIZE PUSH1 0x4 PUSH2 0xE99 JUMP JUMPDEST PUSH1 0x4 PUSH1 0x20 MSTORE PUSH1 0x0 SWAP1 DUP2 MSTORE PUSH1 0x40 SWAP1 KECCAK256 DUP1 SLOAD PUSH1 0x1 DUP3 ADD SLOAD PUSH1 0x2 DUP4 ADD SLOAD PUSH1 0x3 SWAP1 SWAP4 ADD SLOAD PUSH1 0x1 PUSH1 0x1 PUSH1 0xA0 SHL SUB SWAP1 SWAP3 AND SWAP3 SWAP1 SWAP2 PUSH1 0xFF SWAP1 SWAP2 AND SWAP1 DUP5 JUMP JUMPDEST PUSH1 0x40 DUP1 MLOAD PUSH1 0x1 PUSH1 0x1 PUSH1 0xA0 SHL SUB SWAP1 SWAP6 AND DUP6 MSTORE PUSH1 0x20 DUP6 ADD SWAP4 SWAP1 SWAP4 MSTORE SWAP1 ISZERO ISZERO SWAP2 DUP4 ADD SWAP2 SWAP1 SWAP2 MSTORE PUSH1 0x60 DUP3 ADD MSTORE PUSH1 0x80 ADD PUSH2 0x15A JUMP JUMPDEST PUSH2 0x1E9 PUSH2 0x36E CALLDATASIZE PUSH1 0x4 PUSH2 0xE7E JUMP JUMPDEST PUSH2 0xAB5 JUMP JUMPDEST PUSH2 0x1E9 PUSH2 0x381 CALLDATASIZE PUSH1 0x4 PUSH2 0xEDC JUMP JUMPDEST PUSH2 0xAF0 JUMP JUMPDEST PUSH1 0x0 PUSH2 0x390 PUSH2 0xBD6 JUMP JUMPDEST PUSH1 0x1 PUSH1 0x1 PUSH1 0xA0 SHL SUB DUP3 AND PUSH1 0x0 SWAP1 DUP2 MSTORE PUSH1 0x3 PUSH1 0x20 MSTORE PUSH1 0x40 SWAP1 KECCAK256 DUP1 SLOAD PUSH2 0x3E8 JUMPI PUSH1 0x40 MLOAD PUSH3 0x461BCD PUSH1 0xE5 SHL DUP2 MSTORE PUSH1 0x20 PUSH1 0x4 DUP3 ADD MSTORE PUSH1 0xA PUSH1 0x24 DUP3 ADD MSTORE PUSH10 0x139BC819195C1BDCDA5D PUSH1 0xB2 SHL PUSH1 0x44 DUP3 ADD MSTORE PUSH1 0x64 ADD JUMPDEST PUSH1 0x40 MLOAD DUP1 SWAP2 SUB SWAP1 REVERT JUMPDEST PUSH1 0x0 DUP2 PUSH1 0x3 ADD SLOAD TIMESTAMP PUSH2 0x3FA SWAP2 SWAP1 PUSH2 0xF14 JUMP JUMPDEST SWAP1 POP PUSH1 0x0 PUSH4 0xBBF81E00 DUP3 DUP5 PUSH1 0x0 ADD SLOAD PUSH2 0x413 SWAP2 SWAP1 PUSH2 0xF2D JUMP JUMPDEST PUSH2 0x41E SWAP1 PUSH1 0xC PUSH2 0xF2D JUMP JUMPDEST PUSH2 0x428 SWAP2 SWAP1 PUSH2 0xF44 JUMP JUMPDEST SWAP1 POP DUP1 ISZERO PUSH2 0x525 JUMPI PUSH1 0x0 PUSH2 0x2710 PUSH1 0x8 SLOAD DUP4 PUSH2 0x443 SWAP2 SWAP1 PUSH2 0xF2D JUMP JUMPDEST PUSH2 0x44D SWAP2 SWAP1 PUSH2 0xF44 JUMP JUMPDEST SWAP1 POP PUSH1 0x0 PUSH2 0x45B DUP3 DUP5 PUSH2 0xF14 JUMP JUMPDEST SWAP1 POP DUP1 DUP6 PUSH1 0x0 ADD PUSH1 0x0 DUP3 DUP3 SLOAD PUSH2 0x471 SWAP2 SWAP1 PUSH2 0xF66 JUMP JUMPDEST SWAP1 SWAP2 SSTORE POP POP TIMESTAMP PUSH1 0x3 DUP7 ADD SSTORE PUSH1 0x7 DUP1 SLOAD DUP3 SWAP2 SWAP1 PUSH1 0x0 SWAP1 PUSH2 0x491 SWAP1 DUP5 SWAP1 PUSH2 0xF66 JUMP JUMPDEST SWAP1 SWAP2 SSTORE POP POP DUP2 ISZERO PUSH2 0x4D6 JUMPI PUSH1 0x9 SLOAD PUSH2 0x4D6 SWAP1 PUSH1 0x1 PUSH1 0x1 PUSH1 0xA0 SHL SUB PUSH32 0x0 DUP2 AND SWAP2 AND DUP5 PUSH2 0xC00 JUMP JUMPDEST DUP7 PUSH1 0x1 PUSH1 0x1 PUSH1 0xA0 SHL SUB AND PUSH32 0xC9695243A805ADB74C91F28311176C65B417E842D5699893CEF56D18BFA48CBA DUP3 PUSH1 0x40 MLOAD PUSH2 0x511 SWAP2 DUP2 MSTORE PUSH1 0x20 ADD SWAP1 JUMP JUMPDEST PUSH1 0x40 MLOAD DUP1 SWAP2 SUB SWAP1 LOG2 SWAP5 POP PUSH2 0x52D SWAP4 POP POP POP POP JUMP JUMPDEST PUSH1 0x0 SWAP4 POP POP POP POP JUMPDEST PUSH2 0x536 PUSH1 0x1 DUP1 SSTORE JUMP JUMPDEST SWAP2 SWAP1 POP JUMP JUMPDEST PUSH2 0x543 PUSH2 0xBD6 JUMP JUMPDEST CALLER PUSH1 0x0 SWAP1 DUP2 MSTORE PUSH1 0x3 PUSH1 0x20 MSTORE PUSH1 0x40 SWAP1 KECCAK256 DUP2 ISZERO DUP1 ISZERO SWAP1 PUSH2 0x565 JUMPI POP DUP1 PUSH1 0x1 ADD SLOAD DUP3 GT ISZERO JUMPDEST PUSH2 0x5A2 JUMPI PUSH1 0x40 MLOAD PUSH3 0x461BCD PUSH1 0xE5 SHL DUP2 MSTORE PUSH1 0x20 PUSH1 0x4 DUP3 ADD MSTORE PUSH1 0xE PUSH1 0x24 DUP3 ADD MSTORE PUSH14 0x496E76616C696420736861726573 PUSH1 0x90 SHL PUSH1 0x44 DUP3 ADD MSTORE PUSH1 0x64 ADD PUSH2 0x3DF JUMP JUMPDEST PUSH1 0x0 PUSH1 0x6 SLOAD PUSH1 0x7 SLOAD DUP5 PUSH2 0x5B5 SWAP2 SWAP1 PUSH2 0xF2D JUMP JUMPDEST PUSH2 0x5BF SWAP2 SWAP1 PUSH2 0xF44 JUMP JUMPDEST SWAP1 POP DUP1 DUP3 PUSH1 0x0 ADD PUSH1 0x0 DUP3 DUP3 SLOAD PUSH2 0x5D5 SWAP2 SWAP1 PUSH2 0xF14 JUMP JUMPDEST SWAP3 POP POP DUP2 SWAP1 SSTORE POP DUP3 DUP3 PUSH1 0x1 ADD PUSH1 0x0 DUP3 DUP3 SLOAD PUSH2 0x5F0 SWAP2 SWAP1 PUSH2 0xF14 JUMP JUMPDEST SWAP3 POP POP DUP2 SWAP1 SSTORE POP DUP3 PUSH1 0x6 PUSH1 0x0 DUP3 DUP3 SLOAD PUSH2 0x609 SWAP2 SWAP1 PUSH2 0xF14 JUMP JUMPDEST SWAP3 POP POP DUP2 SWAP1 SSTORE POP DUP1 PUSH1 0x7 PUSH1 0x0 DUP3 DUP3 SLOAD PUSH2 0x622 SWAP2 SWAP1 PUSH2 0xF14 JUMP JUMPDEST SWAP1 SWAP2 SSTORE POP PUSH2 0x65C SWAP1 POP PUSH1 0x1 PUSH1 0x1 PUSH1 0xA0 SHL SUB PUSH32 0x0 AND CALLER DUP4 PUSH2 0xC00 JUMP JUMPDEST PUSH1 0x40 DUP1 MLOAD DUP3 DUP2 MSTORE PUSH1 0x20 DUP2 ADD DUP6 SWAP1 MSTORE CALLER SWAP2 PUSH32 0xF279E6A1F5E320CCA91135676D9CB6E44CA8A08C0B88342BCDB1144F6511B568 SWAP2 ADD JUMPDEST PUSH1 0x40 MLOAD DUP1 SWAP2 SUB SWAP1 LOG2 POP POP PUSH2 0x6A3 PUSH1 0x1 DUP1 SSTORE JUMP JUMPDEST POP JUMP JUMPDEST PUSH2 0x6AE PUSH2 0xC64 JUMP JUMPDEST PUSH2 0x6B6 PUSH2 0xC91 JUMP JUMPDEST JUMP JUMPDEST PUSH1 0x1 PUSH1 0x1 PUSH1 0xA0 SHL SUB DUP2 AND PUSH1 0x0 SWAP1 DUP2 MSTORE PUSH1 0x3 PUSH1 0x20 DUP2 DUP2 MSTORE PUSH1 0x40 DUP1 DUP5 KECCAK256 DUP2 MLOAD PUSH1 0x80 DUP2 ADD DUP4 MSTORE DUP2 SLOAD DUP2 MSTORE PUSH1 0x1 DUP3 ADD SLOAD SWAP4 DUP2 ADD DUP5 SWAP1 MSTORE PUSH1 0x2 DUP3 ADD SLOAD SWAP3 DUP2 ADD SWAP3 SWAP1 SWAP3 MSTORE SWAP1 SWAP3 ADD SLOAD PUSH1 0x60 DUP4 ADD MSTORE DUP3 SUB PUSH2 0x70E JUMPI POP PUSH1 0x0 SWAP3 SWAP2 POP POP JUMP JUMPDEST PUSH1 0x6 SLOAD PUSH1 0x7 SLOAD DUP3 PUSH1 0x20 ADD MLOAD PUSH2 0x723 SWAP2 SWAP1 PUSH2 0xF2D JUMP JUMPDEST PUSH2 0x72D SWAP2 SWAP1 PUSH2 0xF44 JUMP JUMPDEST SWAP4 SWAP3 POP POP POP JUMP JUMPDEST PUSH2 0x73C PUSH2 0xC64 JUMP JUMPDEST PUSH2 0x3E8 DUP2 GT ISZERO PUSH2 0x77D JUMPI PUSH1 0x40 MLOAD PUSH3 0x461BCD PUSH1 0xE5 SHL DUP2 MSTORE PUSH1 0x20 PUSH1 0x4 DUP3 ADD MSTORE PUSH1 0xC PUSH1 0x24 DUP3 ADD MSTORE PUSH12 0x8CCACA40E8DEDE40D0D2CED PUSH1 0xA3 SHL PUSH1 0x44 DUP3 ADD MSTORE PUSH1 0x64 ADD PUSH2 0x3DF JUMP JUMPDEST PUSH1 0x8 DUP2 SWAP1 SSTORE PUSH1 0x40 MLOAD DUP2 DUP2 MSTORE PUSH32 0x9B49D0CD76012D9C67241C2F68F836EFBAF50EA29901A250040671402D5263F5 SWAP1 PUSH1 0x20 ADD PUSH1 0x40 MLOAD DUP1 SWAP2 SUB SWAP1 LOG1 POP JUMP JUMPDEST PUSH2 0x7C0 PUSH2 0xC64 JUMP JUMPDEST PUSH2 0x6B6 PUSH1 0x0 PUSH2 0xCE3 JUMP JUMPDEST PUSH2 0x7D2 PUSH2 0xC64 JUMP JUMPDEST PUSH2 0x6B6 PUSH2 0xD33 JUMP JUMPDEST PUSH2 0x7E2 PUSH2 0xBD6 JUMP JUMPDEST PUSH2 0x7EA PUSH2 0xD70 JUMP JUMPDEST PUSH1 0x0 DUP2 GT PUSH2 0x82F JUMPI PUSH1 0x40 MLOAD PUSH3 0x461BCD PUSH1 0xE5 SHL DUP2 MSTORE PUSH1 0x20 PUSH1 0x4 DUP3 ADD MSTORE PUSH1 0x12 PUSH1 0x24 DUP3 ADD MSTORE PUSH18 0x416D6F756E74206D757374206265203E203 PUSH1 0x74 SHL PUSH1 0x44 DUP3 ADD MSTORE PUSH1 0x64 ADD PUSH2 0x3DF JUMP JUMPDEST PUSH1 0x0 PUSH1 0x6 SLOAD PUSH1 0x0 EQ PUSH2 0x85A JUMPI PUSH1 0x7 SLOAD PUSH1 0x6 SLOAD PUSH2 0x84B SWAP1 DUP5 PUSH2 0xF2D JUMP JUMPDEST PUSH2 0x855 SWAP2 SWAP1 PUSH2 0xF44 JUMP JUMPDEST PUSH2 0x85C JUMP JUMPDEST DUP2 JUMPDEST CALLER PUSH1 0x0 SWAP1 DUP2 MSTORE PUSH1 0x3 PUSH1 0x20 MSTORE PUSH1 0x40 DUP2 KECCAK256 DUP1 SLOAD SWAP3 SWAP4 POP SWAP2 DUP5 SWAP2 DUP4 SWAP2 PUSH2 0x880 SWAP1 DUP5 SWAP1 PUSH2 0xF66 JUMP JUMPDEST SWAP3 POP POP DUP2 SWAP1 SSTORE POP DUP2 DUP2 PUSH1 0x1 ADD PUSH1 0x0 DUP3 DUP3 SLOAD PUSH2 0x89B SWAP2 SWAP1 PUSH2 0xF66 JUMP JUMPDEST SWAP1 SWAP2 SSTORE POP POP TIMESTAMP PUSH1 0x2 DUP3 ADD DUP2 SWAP1 SSTORE PUSH1 0x3 DUP3 ADD SSTORE PUSH1 0x6 DUP1 SLOAD DUP4 SWAP2 SWAP1 PUSH1 0x0 SWAP1 PUSH2 0x8C2 SWAP1 DUP5 SWAP1 PUSH2 0xF66 JUMP JUMPDEST SWAP3 POP POP DUP2 SWAP1 SSTORE POP DUP3 PUSH1 0x7 PUSH1 0x0 DUP3 DUP3 SLOAD PUSH2 0x8DB SWAP2 SWAP1 PUSH2 0xF66 JUMP JUMPDEST SWAP1 SWAP2 SSTORE POP PUSH2 0x916 SWAP1 POP PUSH1 0x1 PUSH1 0x1 PUSH1 0xA0 SHL SUB PUSH32 0x0 AND CALLER ADDRESS DUP7 PUSH2 0xD94 JUMP JUMPDEST PUSH1 0x40 DUP1 MLOAD DUP5 DUP2 MSTORE PUSH1 0x20 DUP2 ADD DUP5 SWAP1 MSTORE CALLER SWAP2 PUSH32 0x90890809C654F11D6E72A28FA60149770A0D11EC6C92319D6CEB2BB0A4EA1A15 SWAP2 ADD PUSH2 0x690 JUMP JUMPDEST PUSH2 0x956 PUSH2 0xC64 JUMP JUMPDEST PUSH1 0x1 PUSH1 0x1 PUSH1 0xA0 SHL SUB DUP3 AND PUSH2 0x99F JUMPI PUSH1 0x40 MLOAD PUSH3 0x461BCD PUSH1 0xE5 SHL DUP2 MSTORE PUSH1 0x20 PUSH1 0x4 DUP3 ADD MSTORE PUSH1 0x10 PUSH1 0x24 DUP3 ADD MSTORE PUSH16 0x496E76616C6964207374726174656779 PUSH1 0x80 SHL PUSH1 0x44 DUP3 ADD MSTORE PUSH1 0x64 ADD PUSH2 0x3DF JUMP JUMPDEST PUSH2 0x2710 DUP2 GT ISZERO PUSH2 0x9E5 JUMPI PUSH1 0x40 MLOAD PUSH3 0x461BCD PUSH1 0xE5 SHL DUP2 MSTORE PUSH1 0x20 PUSH1 0x4 DUP3 ADD MSTORE PUSH1 0x11 PUSH1 0x24 DUP3 ADD MSTORE PUSH17 0x416C6C6F636174696F6E203E2031303025 PUSH1 0x78 SHL PUSH1 0x44 DUP3 ADD MSTORE PUSH1 0x64 ADD PUSH2 0x3DF JUMP JUMPDEST PUSH1 0x40 DUP1 MLOAD PUSH1 0x80 DUP2 ADD DUP3 MSTORE PUSH1 0x1 PUSH1 0x1 PUSH1 0xA0 SHL SUB DUP5 DUP2 AND DUP1 DUP4 MSTORE PUSH1 0x20 DUP1 DUP5 ADD DUP7 DUP2 MSTORE PUSH1 0x1 DUP6 DUP8 ADD DUP2 DUP2 MSTORE PUSH1 0x0 PUSH1 0x60 DUP9 ADD DUP2 DUP2 MSTORE PUSH1 0x5 DUP1 SLOAD DUP4 MSTORE PUSH1 0x4 DUP8 MSTORE SWAP2 DUP11 SWAP1 KECCAK256 SWAP9 MLOAD DUP10 SLOAD PUSH1 0x1 PUSH1 0x1 PUSH1 0xA0 SHL SUB NOT AND SWAP9 AND SWAP8 SWAP1 SWAP8 OR DUP9 SSTORE SWAP3 MLOAD SWAP2 DUP8 ADD SWAP2 SWAP1 SWAP2 SSTORE MLOAD PUSH1 0x2 DUP7 ADD DUP1 SLOAD PUSH1 0xFF NOT AND SWAP2 ISZERO ISZERO SWAP2 SWAP1 SWAP2 OR SWAP1 SSTORE SWAP3 MLOAD PUSH1 0x3 SWAP1 SWAP5 ADD SWAP4 SWAP1 SWAP4 SSTORE SWAP1 SLOAD DUP4 MLOAD SWAP2 DUP3 MSTORE SWAP2 DUP2 ADD DUP5 SWAP1 MSTORE SWAP1 SWAP2 PUSH32 0xE29E5861ECA7C6E4C466B83B182AC36BF926B16E500C62747A7FCD867AF8C738 SWAP2 ADD PUSH1 0x40 MLOAD DUP1 SWAP2 SUB SWAP1 LOG2 PUSH1 0x5 DUP1 SLOAD SWAP1 PUSH1 0x0 PUSH2 0xAAC DUP4 PUSH2 0xF79 JUMP JUMPDEST SWAP2 SWAP1 POP SSTORE POP POP POP JUMP JUMPDEST PUSH2 0xABD PUSH2 0xC64 JUMP JUMPDEST PUSH1 0x1 PUSH1 0x1 PUSH1 0xA0 SHL SUB DUP2 AND PUSH2 0xAE7 JUMPI PUSH1 0x40 MLOAD PUSH4 0x1E4FBDF7 PUSH1 0xE0 SHL DUP2 MSTORE PUSH1 0x0 PUSH1 0x4 DUP3 ADD MSTORE PUSH1 0x24 ADD PUSH2 0x3DF JUMP JUMPDEST PUSH2 0x6A3 DUP2 PUSH2 0xCE3 JUMP JUMPDEST PUSH2 0xAF8 PUSH2 0xC64 JUMP JUMPDEST PUSH1 0x5 SLOAD DUP3 LT PUSH2 0xB3C JUMPI PUSH1 0x40 MLOAD PUSH3 0x461BCD PUSH1 0xE5 SHL DUP2 MSTORE PUSH1 0x20 PUSH1 0x4 DUP3 ADD MSTORE PUSH1 0x10 PUSH1 0x24 DUP3 ADD MSTORE PUSH16 0x496E76616C6964207374726174656779 PUSH1 0x80 SHL PUSH1 0x44 DUP3 ADD MSTORE PUSH1 0x64 ADD PUSH2 0x3DF JUMP JUMPDEST PUSH2 0x2710 DUP2 GT ISZERO PUSH2 0xB82 JUMPI PUSH1 0x40 MLOAD PUSH3 0x461BCD PUSH1 0xE5 SHL DUP2 MSTORE PUSH1 0x20 PUSH1 0x4 DUP3 ADD MSTORE PUSH1 0x11 PUSH1 0x24 DUP3 ADD MSTORE PUSH17 0x416C6C6F636174696F6E203E2031303025 PUSH1 0x78 SHL PUSH1 0x44 DUP3 ADD MSTORE PUSH1 0x64 ADD PUSH2 0x3DF JUMP JUMPDEST PUSH1 0x0 DUP3 DUP2 MSTORE PUSH1 0x4 PUSH1 0x20 MSTORE PUSH1 0x40 SWAP1 DUP2 SWAP1 KECCAK256 PUSH1 0x1 ADD DUP3 SWAP1 SSTORE MLOAD DUP3 SWAP1 PUSH32 0x4013B0DB7CF4AA4ABDBE70714F5BCF2F1C3080326667C626EE8CC14A3288282F SWAP1 PUSH2 0xBCA SWAP1 DUP5 DUP2 MSTORE PUSH1 0x20 ADD SWAP1 JUMP JUMPDEST PUSH1 0x40 MLOAD DUP1 SWAP2 SUB SWAP1 LOG2 POP POP JUMP JUMPDEST PUSH1 0x2 PUSH1 0x1 SLOAD SUB PUSH2 0xBF9 JUMPI PUSH1 0x40 MLOAD PUSH4 0x3EE5AEB5 PUSH1 0xE0 SHL DUP2 MSTORE PUSH1 0x4 ADD PUSH1 0x40 MLOAD DUP1 SWAP2 SUB SWAP1 REVERT JUMPDEST PUSH1 0x2 PUSH1 0x1 SSTORE JUMP JUMPDEST PUSH1 0x40 MLOAD PUSH1 0x1 PUSH1 0x1 PUSH1 0xA0 SHL SUB DUP4 DUP2 AND PUSH1 0x24 DUP4 ADD MSTORE PUSH1 0x44 DUP3 ADD DUP4 SWAP1 MSTORE PUSH2 0xC5F SWAP2 DUP6 SWAP2 DUP3 AND SWAP1 PUSH4 0xA9059CBB SWAP1 PUSH1 0x64 ADD JUMPDEST PUSH1 0x40 MLOAD PUSH1 0x20 DUP2 DUP4 SUB SUB DUP2 MSTORE SWAP1 PUSH1 0x40 MSTORE SWAP2 POP PUSH1 0xE0 SHL PUSH1 0x20 DUP3 ADD DUP1 MLOAD PUSH1 0x1 PUSH1 0x1 PUSH1 0xE0 SHL SUB DUP4 DUP2 DUP4 AND OR DUP4 MSTORE POP POP POP POP PUSH2 0xDD3 JUMP JUMPDEST POP POP POP JUMP JUMPDEST PUSH1 0x0 SLOAD PUSH1 0x1 PUSH1 0x1 PUSH1 0xA0 SHL SUB AND CALLER EQ PUSH2 0x6B6 JUMPI PUSH1 0x40 MLOAD PUSH4 0x118CDAA7 PUSH1 0xE0 SHL DUP2 MSTORE CALLER PUSH1 0x4 DUP3 ADD MSTORE PUSH1 0x24 ADD PUSH2 0x3DF JUMP JUMPDEST PUSH2 0xC99 PUSH2 0xE44 JUMP JUMPDEST PUSH1 0x2 DUP1 SLOAD PUSH1 0xFF NOT AND SWAP1 SSTORE PUSH32 0x5DB9EE0A495BF2E6FF9C91A7834C1BA4FDD244A5E8AA4E537BD38AEAE4B073AA CALLER JUMPDEST PUSH1 0x40 MLOAD PUSH1 0x1 PUSH1 0x1 PUSH1 0xA0 SHL SUB SWAP1 SWAP2 AND DUP2 MSTORE PUSH1 0x20 ADD PUSH1 0x40 MLOAD DUP1 SWAP2 SUB SWAP1 LOG1 JUMP JUMPDEST PUSH1 0x0 DUP1 SLOAD PUSH1 0x1 PUSH1 0x1 PUSH1 0xA0 SHL SUB DUP4 DUP2 AND PUSH1 0x1 PUSH1 0x1 PUSH1 0xA0 SHL SUB NOT DUP4 AND DUP2 OR DUP5 SSTORE PUSH1 0x40 MLOAD SWAP2 SWAP1 SWAP3 AND SWAP3 DUP4 SWAP2 PUSH32 0x8BE0079C531659141344CD1FD0A4F28419497F9722A3DAAFE3B4186F6B6457E0 SWAP2 SWAP1 LOG3 POP POP JUMP JUMPDEST PUSH2 0xD3B PUSH2 0xD70 JUMP JUMPDEST PUSH1 0x2 DUP1 SLOAD PUSH1 0xFF NOT AND PUSH1 0x1 OR SWAP1 SSTORE PUSH32 0x62E78CEA01BEE320CD4E420270B5EA74000D11B0C9F74754EBDBFC544B05A258 PUSH2 0xCC6 CALLER SWAP1 JUMP JUMPDEST PUSH1 0x2 SLOAD PUSH1 0xFF AND ISZERO PUSH2 0x6B6 JUMPI PUSH1 0x40 MLOAD PUSH4 0xD93C0665 PUSH1 0xE0 SHL DUP2 MSTORE PUSH1 0x4 ADD PUSH1 0x40 MLOAD DUP1 SWAP2 SUB SWAP1 REVERT JUMPDEST PUSH1 0x40 MLOAD PUSH1 0x1 PUSH1 0x1 PUSH1 0xA0 SHL SUB DUP5 DUP2 AND PUSH1 0x24 DUP4 ADD MSTORE DUP4 DUP2 AND PUSH1 0x44 DUP4 ADD MSTORE PUSH1 0x64 DUP3 ADD DUP4 SWAP1 MSTORE PUSH2 0xDCD SWAP2 DUP7 SWAP2 DUP3 AND SWAP1 PUSH4 0x23B872DD SWAP1 PUSH1 0x84 ADD PUSH2 0xC2D JUMP JUMPDEST POP POP POP POP JUMP JUMPDEST PUSH1 0x0 DUP1 PUSH1 0x20 PUSH1 0x0 DUP5 MLOAD PUSH1 0x20 DUP7 ADD PUSH1 0x0 DUP9 GAS CALL DUP1 PUSH2 0xDF6 JUMPI PUSH1 0x40 MLOAD RETURNDATASIZE PUSH1 0x0 DUP3 RETURNDATACOPY RETURNDATASIZE DUP2 REVERT JUMPDEST POP POP PUSH1 0x0 MLOAD RETURNDATASIZE SWAP2 POP DUP2 ISZERO PUSH2 0xE0E JUMPI DUP1 PUSH1 0x1 EQ ISZERO PUSH2 0xE1B JUMP JUMPDEST PUSH1 0x1 PUSH1 0x1 PUSH1 0xA0 SHL SUB DUP5 AND EXTCODESIZE ISZERO JUMPDEST ISZERO PUSH2 0xDCD JUMPI PUSH1 0x40 MLOAD PUSH4 0x5274AFE7 PUSH1 0xE0 SHL DUP2 MSTORE PUSH1 0x1 PUSH1 0x1 PUSH1 0xA0 SHL SUB DUP6 AND PUSH1 0x4 DUP3 ADD MSTORE PUSH1 0x24 ADD PUSH2 0x3DF JUMP JUMPDEST PUSH1 0x2 SLOAD PUSH1 0xFF AND PUSH2 0x6B6 JUMPI PUSH1 0x40 MLOAD PUSH4 0x8DFC202B PUSH1 0xE0 SHL DUP2 MSTORE PUSH1 0x4 ADD PUSH1 0x40 MLOAD DUP1 SWAP2 SUB SWAP1 REVERT JUMPDEST DUP1 CALLDATALOAD PUSH1 0x1 PUSH1 0x1 PUSH1 0xA0 SHL SUB DUP2 AND DUP2 EQ PUSH2 0x536 JUMPI PUSH1 0x0 DUP1 REVERT JUMPDEST PUSH1 0x0 PUSH1 0x20 DUP3 DUP5 SUB SLT ISZERO PUSH2 0xE90 JUMPI PUSH1 0x0 DUP1 REVERT JUMPDEST PUSH2 0x72D DUP3 PUSH2 0xE67 JUMP JUMPDEST PUSH1 0x0 PUSH1 0x20 DUP3 DUP5 SUB SLT ISZERO PUSH2 0xEAB JUMPI PUSH1 0x0 DUP1 REVERT JUMPDEST POP CALLDATALOAD SWAP2 SWAP1 POP JUMP JUMPDEST PUSH1 0x0 DUP1 PUSH1 0x40 DUP4 DUP6 SUB SLT ISZERO PUSH2 0xEC5 JUMPI PUSH1 0x0 DUP1 REVERT JUMPDEST PUSH2 0xECE DUP4 PUSH2 0xE67 JUMP JUMPDEST SWAP5 PUSH1 0x20 SWAP4 SWAP1 SWAP4 ADD CALLDATALOAD SWAP4 POP POP POP JUMP JUMPDEST PUSH1 0x0 DUP1 PUSH1 0x40 DUP4 DUP6 SUB SLT ISZERO PUSH2 0xEEF JUMPI PUSH1 0x0 DUP1 REVERT JUMPDEST POP POP DUP1 CALLDATALOAD SWAP3 PUSH1 0x20 SWAP1 SWAP2 ADD CALLDATALOAD SWAP2 POP JUMP JUMPDEST PUSH4 0x4E487B71 PUSH1 0xE0 SHL PUSH1 0x0 MSTORE PUSH1 0x11 PUSH1 0x4 MSTORE PUSH1 0x24 PUSH1 0x0 REVERT JUMPDEST DUP2 DUP2 SUB DUP2 DUP2 GT ISZERO PUSH2 0xF27 JUMPI PUSH2 0xF27 PUSH2 0xEFE JUMP JUMPDEST SWAP3 SWAP2 POP POP JUMP JUMPDEST DUP1 DUP3 MUL DUP2 ISZERO DUP3 DUP3 DIV DUP5 EQ OR PUSH2 0xF27 JUMPI PUSH2 0xF27 PUSH2 0xEFE JUMP JUMPDEST PUSH1 0x0 DUP3 PUSH2 0xF61 JUMPI PUSH4 0x4E487B71 PUSH1 0xE0 SHL PUSH1 0x0 MSTORE PUSH1 0x12 PUSH1 0x4 MSTORE PUSH1 0x24 PUSH1 0x0 REVERT JUMPDEST POP DIV SWAP1 JUMP JUMPDEST DUP1 DUP3 ADD DUP1 DUP3 GT ISZERO PUSH2 0xF27 JUMPI PUSH2 0xF27 PUSH2 0xEFE JUMP JUMPDEST PUSH1 0x0 PUSH1 0x1 DUP3 ADD PUSH2 0xF8B JUMPI PUSH2 0xF8B PUSH2 0xEFE JUMP JUMPDEST POP PUSH1 0x1 ADD SWAP1 JUMP INVALID LOG2 PUSH5 0x6970667358 0x22 SLT KECCAK256 0xF 0xD7 0xFC DUP16 GAS SELFBALANCE PUSH6 0xE6CB3C904FE6 0xA5 0x25 0x4D SWAP7 0xB4 0x27 RETURN LOG0 DUP12 0x2A 0xC0 LOG4 EXTCODEHASH ADDRESS 0x2A SHL 0xBC DELEGATECALL POP PUSH5 0x736F6C6343 STOP ADDMOD EQ STOP CALLER "},"methodIdentifiers":{"addStrategy(address,uint256)":"c9411e22","deposit(uint256)":"b6b55f25","depositToken()":"c89039c5","feeRecipient()":"46904840","getUserBalance(address)":"47734892","getVaultStats()":"a59aa5a6","harvest(address)":"0e5c011e","owner()":"8da5cb5b","pause()":"8456cb59","paused()":"5c975abb","performanceFee()":"87788782","renounceOwnership()":"715018a6","setPerformanceFee(uint256)":"70897b23","strategies(uint256)":"d574ea3d","strategyCount()":"22068b44","totalAssets()":"01e1d114","totalShares()":"3a98ef39","transferOwnership(address)":"f2fde38b","unpause()":"3f4ba83a","updateStrategyAllocation(uint256,uint256)":"fe1148e1","userDeposits(address)":"0ba36dcd","withdraw(uint256)":"2e1a7d4d"}}}}}